:020000040001F9
:10F00000A84C002015F401001DF401001FF40100BC
:10F0100021F4010023F4010025F4010000000000A8
:10F0200000000000000000000000000027F40100C4
:10F0300029F40100000000002BF401002DF4010070
:10F0400039F801002FF4010079FB0100BDF801003F
:10F050002FF401002FF4010025F501002FF4010029
:10F060002FF401002FF401002FF401002FF4010010
:10F070002FF401002FF401002FF401002FF4010000
:10F080002FF4010089F801002FF401002FF4010092
:10F09000D1F801002FF40100D9F801002FF401008C
:10F0A0002FF401002FF401002FF401002FF40100D0
:10F0B0002FF401002FF40100000000000000000008
:10F0C0002FF401002FF401002FF401002FF40100B0
:10F0D0002FF401002FF401002FF4010000000000C4
:10F0E0000000000000000000000000000000000020
:10F0F0000000000000000000000000000000000010
:10F1000000000000000000000000000000000000FF
:10F1100000000000000000000000000000000000EF
:10F40000DFF80CD000F050F800480047294D02000A
:10F41000A84C00200648804706480047FEE7FEE764
:10F42000FEE7FEE7FEE7FEE7FEE7FEE7FEE7FEE7B4
:10F4300021F9010001F4010040EA01039B0703D018
:10F4400009E008C9121F08C0042AFAD203E011F823
:10F45000013B00F8013B521EF9D27047D2B201E0E5
:10F4600000F8012B491EFBD270470022F6E710B5C9
:10F4700013460A4604461946FFF7F0FF204610BD22
:10F48000421C10F8011B0029FBD1801A704730B5CF
:10F4900004460020034600E05B1C934203D2E05C7C
:10F4A000CD5C401BF8D030BD064C074D06E0E0684F
:10F4B00040F0010394E8070098471034AC42F6D3BB
:10F4C000FFF7A2FF9CA40200BCA4020070B58C1838
:10F4D00010F8015B15F0070301D110F8013B2A1168
:10F4E00006D110F8012B03E010F8016B01F8016B55
:10F4F0005B1EF9D12B0705D40023521E0DD401F851
:10F50000013BFAE710F8013BCB1A921C03E013F819
:10F51000015B01F8015B521EF9D5A142D8D300204E
:10F5200070BD00002DE9F04F89B04FF000080020B9
:10F5300008904FF4807007900126002413E007988C
:10F5400006F018F948B100BF81480068304020B18A
:10F55000079806F001F948EA060876000798001DAA
:10F5600080B20790641C082CE9D34FF4BE7006F0FB
:10F5700001F950B14FF4BE7006F0EEF848F00048C3
:10F5800008AA0121002006F0CDF808F0FF0000B322
:10F59000012600241BE006EA0800B0B100BF6D4858
:10F5A00050F82400C0F30420074600BF694850F813
:10F5B0002400C0F301408146204602F0F9FB0546D5
:10F5C00015B149463846A84700BF7600641C082C90
:10F5D000E1D308F0004000287ED00020069005907E
:10F5E000002505E04FF0FF3004A941F825006D1C0F
:10F5F000002DF7D000BF0020069000246FE0564891
:10F60000005D0390039820F0C00753480057401C4A
:10F61000002863D004A9384605F0FEFC00285DD020
:10F6200003984FEA901A384602F00AFC814602F02D
:10F63000BFFB0290029810B9BAF1030F4BD1BAF197
:10F64000030F11D1394605A80246CB0801F0070186
:10F6500012F803C04FF0010E0EFA01FE4CEA0E0C38
:10F6600002F803C000BF00BF00BF00BF4FF0A041C1
:10F67000084600F5E06151F82710C1F3014900BFC9
:10F6800008A9384605F0C8FC8346BBF1000F02D03C
:10F69000B9F1020F05D0BBF1000F1BD1B9F1030F77
:10F6A00018D1BAF1030F0FD1B9F1020F01D1032024
:10F6B00000E0022001903846019905F0DBFF069832
:10F6C000401CC0B2069000BF029818B1514638469F
:10F6D000029A904700BF00E036E000BF641C042C93
:10F6E0008DD3069858B3012703AA0121002006F004
:10F6F00019F800250AE003A850F8250008A951F8D8
:10F700002510884201D0002702E06D1C002DF2D0A8
:10F7100000BF17B10020069010E000250CE003A800
:10F7200050F8250008A941F8250005A850F8250043
:10F7300004A941F825006D1C002DF0D000BF0698EB
:10F7400000287FF458AF00BF09B0BDE8F08F00007B
:10F750000463004010650040882A002000F01F026A
:10F7600001219140024A430942F8231070470000EA
:10F7700080E200E000F01F0201219140024A4309AB
:10F7800042F823107047000080E100E000F01F0203
:10F79000012191404209920002F1E022C2F80011D9
:10F7A000704700F01F02012191404209920002F1CE
:10F7B000E022C2F80011704700F01F0201219140C1
:10F7C000024A430942F823107047000000E200E0BB
:10F7D00010B5002807DA4A07140E054A00F00F0397
:10F7E0001B1FD45403E04A07130E024A135410BDE2
:10F7F00018ED00E000E400E000BF00BF00BFBFF371
:10F800004F8F00BF00BF00BF0948006800F4E060F0
:10F8100008490843001D0649086000BF00BF00BF3B
:10F82000BFF34F8F00BF00BF00BF00BF00BFFDE7A9
:10F830000CED00E00000FA0510B54FF4807005F003
:10F84000F6FB60B14FF4807005F0FAFB012005F083
:10F8500001FC01200B494870002002F01DFC4FF410
:10F86000827005F0E4FB58B14FF4827005F0E8FBBC
:10F87000022005F0EFFB01200249887002F00CFC29
:10F8800010BD0000242A002010B50020094908609E
:10F8900000210948C0F84411C0F84811C0F84C11C3
:10F8A00000200549C1F8000102493C39086009F00F
:10F8B00051FE10BD401101400010014010B5024939
:10F8C000024804F0DBFD10BD802C00200030004019
:10F8D00010B509F055FD10BD70B50B48006880B13A
:10F8E000094800688047044600BF25463DB100BF77
:10F8F000064A40F28F11284600F0E2FB00BF00BF2D
:10F9000001E004F003FD70BDC022002044A4020009
:10F9100001480249086070470090D003D8220020B7
:10F9200010B502F0EBFE10B186488749486702F037
:10F93000FDFE28B185480068C0F342308449086064
:10F9400002F01EFF28B18348006820F080708149D2
:10F95000086002F02DFF48B100207F4908604FF099
:10F960008041C1F810017A49091F086002F04AFF7E
:10F9700018B1032076496431086002F05BFF68B17A
:10F98000052076490860012074497831086000201C
:10F990007249083108603F20091F086002F062FFC9
:10F9A000002855D06E4800686E4908606C48001DFC
:10F9B0000068091D08606A4808300068091D086071
:10F9C00067480C300068091D086065481030006801
:10F9D000091D0860624814300068091D086060480D
:10F9E000183000685F49203108605D481C300068AD
:10F9F000091D08605A4820300068091D08605848F1
:10FA000024300068091D0860554828300068091D29
:10FA1000086053482C300068091D08605048303099
:10FA200000685049403108604D4834300068091D75
:10FA300008604B4838300068091D086048483C3071
:10FA40000068091D0860464840300068091D0860CC
:10FA500002F02AFE30B13D481430006800F04F003B
:10FA6000414908603B487438006840F470003949E7
:10FA70007439086000BF00BF00BFBFF34F8F00BFE5
:10FA800000BF00BF00BF00BF00BFBFF36F8F00BF4C
:10FA900000BF00BF3548006800F00100F0B1012050
:10FAA0003349086000BF334800680028FBD02F4866
:10FAB000006820F001004FF01021C1F80C0200BFD7
:10FAC0002C4800680028FBD000202949086000BFAE
:10FAD000284800680028FBD0FFF78EFE23480C382A
:10FAE000006800F0004028B920480838006800F09D
:10FAF000004018B301201E49086000BF1D4800687F
:10FB00000028FBD0152019490C39086000BF19489E
:10FB100000680028FBD0152114480838016000BF98
:10FB2000144800680028FBD000201149086000BF7D
:10FB3000104800680028FBD0FFF75EFEFFF7E8FEE4
:10FB400010BD00000DF0ADBA00C007404402001027
:10FB50003C050040FCED00E00C0100401056004068
:10FB60000404001020C50040E40E00400C120010F8
:10FB700004E5014000E4014010B50648007F20B1D3
:10FB8000044905480AF00CF803E00249024809F06C
:10FB900066FF10BD902A00200020004002E008C847
:10FBA000121F08C1002AFAD170477047002001E0F7
:10FBB00001C1121F002AFBD1704700000146202915
:10FBC00008DA012088400A4A104008B10120704735
:10FBD0000020FCE7402909DAA1F12000012202FA05
:10FBE00000F008B10120F2E70020F0E70120EEE785
:10FBF000FC06FFBC00BFEFF31081084672B67047E9
:10FC000070B505460C4605B10CB9002070BD2878CA
:10FC100040082178B0EB510F01D00020F6E7062212
:10FC2000611C681CFFF733FC08B90120EEE70020D7
:10FC3000ECE70246002104E0505C08B10120704767
:10FC4000491C0629F8D30020F9E7000010B5044646
:10FC50006CB108480068A04209D806484068A04234
:10FC600005D3204604F0F0FC08B1012010BD0020AF
:10FC7000FCE70000DC2200202DE9FC410446884618
:10FC80001646002537880020308094F82D0058B1A2
:10FC90003A463146404601F0A8F9054600BF15B185
:10FCA0002846BDE8FC8100BFA07850B13A463146F5
:10FCB000404600F029FB054600BF0DB12846F0E79D
:10FCC00000BFE07860B1E17848B23B463246414639
:10FCD00003F076F9054600BF0DB12846E1E700BF05
:10FCE000606868B1616891F900003B463246414660
:10FCF00009F09AFE054600BF0DB12846D1E700BFC6
:10FD0000208900280EDD43460622022104F1080066
:10FD1000CDE900670AF08CF8054600BF0DB1284612
:10FD2000BFE700BF208A00280EDD434607220321DB
:10FD300004F11000CDE900670AF07AF8054600BF2B
:10FD40000DB12846ADE700BF208B00280EDD4346ED
:10FD50001522142104F11800CDE900670AF068F8B3
:10FD6000054600BF0DB128469BE700BF206A58B189
:10FD70003B4632464146206A02F01BFA054600BF68
:10FD80000DB128468DE700BF606A58B13B46324648
:10FD90004146606A05F000F8054600BF0DB12846EF
:10FDA0007FE700BF94F82C0000280BDD3B4632466D
:10FDB0004146204608F0C6FC054600BF0DB1284666
:10FDC0006FE700BF207858B13B4632464146204697
:10FDD00005F06EF8054600BF0DB1284661E700BF8B
:10FDE00028465EE770B504461448FFF722FF054633
:10FDF000012C06D0022C0BD0032C10D0042C1AD1CD
:10FE000013E00F48407810B10DB1012070BD00BF64
:10FE10000B48807810B10DB10220F7E700BF084809
:10FE2000C07808B10320F1E700BF0548007908B1A8
:10FE30000420EBE700BF0020E8E700008D21002050
:10FE4000D42400200146481C052290FBF2F302FB5B
:10FE50001300C0B270470146C87800F0040008B92A
:10FE6000072070470020FCE710B501220221002086
:10FE700001F0FEFC044600BF1CB1072C01D0204657
:10FE800010BD00BF07220221012001F0F1FC044651
:10FE900000BF1CB1072C01D02046F1E700BF0A22A9
:10FEA0000021084601F0E4FC044600BF1CB1072C09
:10FEB00001D02046E4E700BF0020E1E730B599B06B
:10FEC0003C210AA8FFF7D1FA02208DF82800012072
:10FED0008DF82A0006208DF82B000320ADF838009D
:10FEE00011490F91202102A8FFF7BFFA01208DF8D8
:10FEF0000B00C82006901E20079000200B4B02AA82
:10FF0000014600900AA800F0A1FC044600BF254667
:10FF10003DB100BF06A240F2DD31284600F0D0F826
:10FF200000BF00BF19B030BD402100207D58020045
:10FF30002E2E5C2E2E5C2E2E5C6D61696E2E630063
:10FF400070B5032000F0A8FD044600BF25463DB172
:10FF500000BF04A240F20641284600F0B1F800BFFD
:10FF600000BF70BD2E2E5C2E2E5C2E2E5C6D616946
:10FF70006E2E630070B58CB004460D461646002008
:10FF800005E0C0F10F01615C0DF80010401C102865
:10FF9000F7D30D2104A8FFF768FA002005E02A5CDA
:10FFA000C0F10F0304A9CA54401C0328F7D36846C4
:10FFB00043DF002005E0C0F10F0208A9895C31543D
:10FFC000401C0328F7D30CB070BD10B504460220C6
:10FFD00001F0BCFA10BD000010B5002407E007498D
:10FFE000096811F83400012105F05EF9641C044829
:10FFF00000788442F3D3002010BD00006C22002062
:020000040002F8
:10000000702200202DE9F84306460C461746052FBE
:1000100002D20720BDE8F88305F044FA38B905F0AC
:1000200011FA054600BF0DB12846F3E700BF164898
:1000300006601648047016480760002015490860DD
:100040001549086015E006EBC408144800680090E4
:1000500098F802008DF8010098F80000104A6946EF
:1000600005F078F9054600BF0DB12846D2E700BF7C
:1000700000BF201EA4F10101CCB2E4D1094A002145
:10008000094800F071F8C5E76C22002070220020BA
:1000900074220020782200207C220020F4A3020099
:1000A0002939020031240200F0A3020070B5044691
:1000B0000D46164632462946204600F011F870BD1E
:1000C000FEB504460E461546B0B2ADF800000195E7
:1000D00002946A46002144F20100FFF7E7FFFEBDEB
:1000E00018B5012300939DF800301E4B186059602D
:1000F0009A606FF48043034463B1012B19D1194B0B
:10010000DA60DB681B88174CA3612346DB685B68F9
:10011000E3610EE0134B1A611B699B68114C63612C
:1001200023461B691B88A36123461B695B68E36147
:1001300000BF00BF0B4B1B680A4B5B68094B9B68F9
:10014000084BDB68074B1B69064B5B69054B9B69DA
:10015000044BDB6972B600BF9DF80030002BFBD169
:1001600062B618BDD02A002010B503460C4600BF69
:100170000B48406808B9082010BD00BF0AB9072025
:10018000FAE70BB90720F7E71868007C08B10820E8
:10019000F2E71968002008744C744A6100BFEBE76D
:1001A000802200202DE9F04107460D4614461E46E8
:1001B000204600F0030109B9012100E0002111B936
:1001C0000720BDE8F0810CB90720FAE707F0A0FE90
:1001D0001148066000201149087048700846857073
:1001E000446000200E4908600E4908700E490870EE
:1001F0001420FFF7B3FA07211420FFF7E9FA1420BF
:10020000FFF7C4FA384607F059FE07F051FE0749D8
:1002100008600020D5E700009C22002080220020FA
:100220008822002098220020992200208C22002081
:100230002DE9F04104460E461746254600BF1048FA
:10024000406810B90820BDE8F08100BF0CB9082053
:10025000F9E7052E01D20720F5E7686908B90820FB
:10026000F1E7687C012801D1304600E0002080469B
:100270003B4642463146284609F01CF9E3E70000B8
:100280008022002070B50446254600BF084840681B
:1002900008B9082070BD00BF0CB1686908B9082012
:1002A000F8E7002028740221284609F032F9F1E726
:1002B0008022002010B50446204607F0C9FE10BD7C
:1002C00070B5044625460E488068B0B1ADB9FFF759
:1002D00091FC06460A4800680A49086008484068D8
:1002E0004FF0E021C1F804010020054988601EB9E3
:1002F00000BF62B600BF00BF00BF00BF70BD0000FE
:10030000F02A002000E100E0F8B505460C4617464B
:100310002088001DB84201D90C20F8BD684679DF5D
:10032000064600BF0EB13046F7E700BF0320218824
:1003300068542088401C2080192021886854208817
:10034000401C208020884119BDF8000009F0B4FC51
:100350002188084420800020DFE7000070B50022DB
:100360004FF4004108480068FFF762FF044600BFF1
:1003700025463DB100BF05A240F24D212846FFF7BA
:100380009FFE00BF00BF70BDD0A202002E2E5C2ECB
:100390002E5C2E2E5C6D61696E2E630030B58BB0C5
:1003A0001348007800F0D2FD0546284607F084FE89
:1003B000D8B101A800F00AFD142201A906A8FFF790
:1003C0003BF800240DE007A931F81400084909782A
:1003D00000F0CAFD20B107A931F8140004F0DEFBDB
:1003E000641C0698A042EED800BF0BB030BD0000E0
:1003F000C621002010B50446637903F00302217979
:10040000208804F09BFA10BD10B50446207918B975
:10041000204600F007F803E02046FFF7EBFF00BF9F
:1004200000BF10BD2DE9F04188B0044600252088AA
:1004300000F05EFD0746208803F0A8FE0646A0688F
:100440000790607A0690208800222349097800F0FE
:100450009DFD17B908B0BDE8F0816079C0F3800058
:1004600090B10721304606F0BDF80546BDB1082021
:100470008DF800002088ADF80200ADF80460029508
:10048000684602F0BDFA0AE020881449097800F0B5
:100490006BFD20B1304603F063FE804600BF0320B1
:1004A0008DF80C002088ADF80E006079C0F3800054
:1004B0008DF81000A079C0F380018DF811109DF81F
:1004C0001C108DF812109DF818108DF8131003A849
:1004D00002F096FA00BFBDE70622002008220020A5
:1004E000F0B591B004460D46207DD8B100200990AA
:1004F00000BF9DF8240020F00F00401C8DF8240060
:100500009DF8240020F0F00010308DF8240000BF8A
:10051000687B8DF825009DF8260020F00600801CE1
:100520008DF826001C210AA8FEF79FFF9DF82800E1
:1005300020F00200801C8DF82800207D08B10120E9
:1005400000E000209DF8281060F304118DF82810B9
:1005500000200B900D900E90207D08B109A800E0BE
:1005600000200F900020109000BF01208DF80E0099
:1005700042F61920ADF80C0000BF00200290A87BC5
:100580008DF80800E87B8DF809009DF80A0020F03E
:100590000600801C8DF80A009DF80A0020F0080073
:1005A0008DF80A009DF80A0020F010008DF80A006E
:1005B0009DF80A0020F001008DF80A00287B0190C8
:1005C000142104A8FEF751FF03A8049002A8059087
:1005D0000120ADF818000020ADF81A000120ADF898
:1005E0001C0001A80890A088A31D04AA0AA9A2DFE4
:1005F000064616B1304611B0F0BDA868002855D0A7
:1006000000BF01208DF80E0042F60810ADF80C0076
:1006100000BF00200290287C8DF8080000BF9DF8E4
:10062000090020F00F008DF809009DF8090020F066
:10063000F0008DF8090000BF9DF80A0020F00600C8
:10064000801C8DF80A009DF80A0020F008008DF843
:100650000A009DF80A0020F010008DF80A009DF8AD
:100660000A0020F001008DF80A006846A96800F031
:10067000A5FE0746142104A8FEF7F7FE03A8049080
:1006800002A80590ADF818700020ADF81A00BDF86A
:100690001800ADF81C00CDF820D0E08804F10E025F
:1006A00004A9A3DF06461EB13046A4E70020E0817E
:1006B0000020A0E710B50446052000BF0207114640
:1006C00000BFD1F81025C24002F001021D480260AF
:1006D000006850B91C480078172811D0172001F085
:1006E000F5F81720184908700AE01748007817280D
:1006F00006D11648007801F0E9F800201249087088
:1007000013480078E0B100F029F808F0D9FD0D4851
:10071000006818B900200F49088004E00D480088DF
:10072000401C0C4908800B4800881E2808DD132156
:100730000948008876DF08F0FFF9002005490880A5
:1007400010BD000054210020502100205121002024
:100750004C2100204E2100202821002070B50F4997
:100760000F4807F025FFC5B229460E4800F048FAA9
:1007700004468CB1082C0FD043F2040084420BD005
:1007800043F20140844207D000BF07A24FF49071AA
:100790002046FFF795FC00BF70BD0000202300201D
:1007A0002C210020EC2200202E2E5C2E2E5C2E2EE2
:1007B0005C6D61696E2E63002DE9F04192B0804658
:1007C0000D461F2011901090B8F1000F17D0404631
:1007D000FFF741FB044600BF1CB1204612B0BDE844
:1007E000F08100BF11AA08A94046FFF745FA044668
:1007F00000BF0CB12046F1E700BF08AE02E00026C2
:1008000000201190ADB1284608F0B4FC044600BFAA
:100810000CB12046E2E700BF10AA69462846FFF760
:100820002BFA044600BF0CB12046D7E700BF6F4645
:1008300002E0002700201090BDF84000C3B2BDF8D0
:100840004400C1B23A46304672DFC7E72DE9F047AF
:1008500004460F4615461E46DDF8208004B115B942
:100860000E20BDE8F0870120484908700020484963
:100870000870202229464748FEF7DEFD46480660FC
:100880004648C0F800804FF6FF704549088045484B
:1008900000210160818081713C214348FEF7E5FD24
:1008A000207841490870A0788870E078C870607836
:1008B0004870D4E90402C1E904020846D4E90212EE
:1008C000C0E90212D4E90612C0E90612606AD8B182
:1008D00036483549486236498160606A0088324945
:1008E000496A0880606A80882F49496A88800020A8
:1008F00005E0616A8968095C2D4A1154401C2A4947
:10090000496A89888142F4D8A06A20B329492A48D3
:1009100081602549886227492348806A8160A06AEE
:1009200080882149896A8880A06A00881E49896A6E
:100930000880002005E0A16A8968095C1D4A1154FD
:10094000401C1949896A89888142F4D894F82C009E
:10095000154981F82C00206A58B1184812490862DC
:10096000206A4088096A4880206A00880E49096A1E
:100970000880606810B10C496068486039460A48D0
:10098000FFF71AFF814648466BE7000088210020E8
:100990008B210020D42400209C210020A0210020B5
:1009A000982100208C210020F424002030250020F4
:1009B0003C250020682500205C2500209421002093
:1009C00010B504462088102804D0112806D01B2812
:1009D0000CD107E0204605F0ADF808E0204605F010
:1009E000DBF804E0204605F06BF900E000BF00BF33
:1009F00010BD000070B50546022D02D0032D15D1A3
:100A000000E000BF0B48007878B100200949087069
:100A10000948007800F040F8044634B107480068FF
:100A200018B1204605490968884700E000BF00BFAB
:100A300070BD0000892100208B210020A021002012
:100A400010B574DF01200F49087000200E490870AE
:100A500006200E49C87000210C48FFF7ADFE044681
:100A60000CB1204610BD0A48007800F015F8044685
:100A700034B10848006818B120460649096888471B
:100A80000020EFE7A4210020A6210020F42400206C
:100A90008B210020A02100207FB505464D4800781D
:100AA00010B9082004B070BD4B48057002F0F2FA8E
:100AB00020B10120494908700020F3E7484800218F
:100AC0000160818081714748407818B142480078C0
:100AD00001280DD04348807818B13F48007801289C
:100AE00006D04048807888B13B48007802280DD174
:100AF0003D48006838B101203C49087008203A4957
:100B00000968884702E00020384908702846FFF746
:100B100069F93149087034480068C0B10846007866
:100B2000032803D008460078042810D12D48007807
:100B300068B12F48007850B900202E490870012074
:100B40002D490870072028490968884702E00020DD
:100B500029490870002000900190029003908DF8C0
:100B600000008DF808001C48007805281CD2DFE83A
:100B700000F01703080D1200684607F057FF0446FF
:100B800013E0684607F062FF04460EE0684607F08F
:100B900073FF044609E0684607F09EFF044604E040
:100BA00000201649087000E000BF00BF0A48007826
:100BB00028B1684673DF04460CB1204672E70A4844
:100BC000006820B10D48007807490968884700206F
:100BD00068E70000882100208B2100208921002067
:100BE0008C210020D42400209C210020932100206F
:100BF000A4210020A6210020A52100208A21002078
:100C000033B587B0044614B90E2009B030BD0025B5
:100C1000207C9DF82010884236D000200590069058
:100C20000120ADF814000020ADF8160008A80690C9
:100C3000E188608A05AAA4DF05461DB99DF8200059
:100C4000207401E02846E0E7608A4FF6FF71884291
:100C500019D0207DB8B1002001900290039004903B
:100C6000E088ADF8040001208DF80600BDF81600FC
:100C7000ADF8080005A8039006980490608A01A9C1
:100C8000A6DF054600E008252846BEE7F8B504467D
:100C90000D4604B10DB90E20F8BD286820604FF64E
:100CA000FF70608228792075FF20207400BF01202A
:100CB0008DF8020041F60F00ADF8000000BF221DC4
:100CC00069460120A0DF06460EB13046E4E729461A
:100CD0002046FFF705FCDFE770B505460C4605B179
:100CE00004B970BD2088102804D0112807D05028DE
:100CF0000FD109E02146284604F016FF0AE02146FC
:100D0000284604F041FF05E02146284605F01AF880
:100D100000E000BF00BF00BFE3E7000070B505467C
:100D20001C2229461248FEF787FB00201149087053
:100D3000286850B1104829680A6802604968416013
:100D40007ADF04463CB1204670BD0B487BDF044689
:100D50000CB12046F8E74FF6FF70084908800020E4
:100D600007490870074A00210748FFF7FDF9EBE73C
:100D700088250020BC210020A8210020B2210020CD
:100D8000B0210020299D020024A3020010B50446D2
:100D90002088102806D0112808D012280ED05028FC
:100DA00010D107E0204604F0A3FE0CE0204604F03A
:100DB000CBFE08E0204604F09FFF04E0204604F04C
:100DC0008BFE00E000BF00BF10BD000010B5044660
:100DD0000348027D011D204607F0E7F910BD000021
:100DE000C425002010B504460348C17D2246001DDD
:100DF00007F0C4F910BD0000C425002010B504465A
:100E00000348017E2246001D07F0B8F910BD00001E
:100E1000C425002070B504462088102804D011286D
:100E20001FD01A2842D120E006F0DCFFA08806F08F
:100E300053FE30B900BF1EA2C5210420FFF740F9C0
:100E40000EE0E07B022801D1012000E000200546F1
:100E5000A2882B462549A1F1120007F0C7F900BF6F
:100E600024E0A08806F0E0FF20E0207A0121B1EB29
:100E7000101F01DA012000E000200346A2881B4970
:100E8000491CA1F1130007F0B1F9207A0221B1EB5E
:100E9000101F01DA012000E000200346A288134958
:100EA000891CA1F1140007F0A1F900BF00BF70BDBB
:100EB0002E2E5C2E2E5C2E2E5C2E2E5C2E2E5C2E6C
:100EC0002E5C636F6D706F6E656E74735C626C65C3
:100ED0005C636F6D6D6F6E5C626C655F636F6E6E91
:100EE0005F73746174652E6300000000DA250020D2
:100EF00070B5044600250B48017D2246001D07F011
:100F00003DF960B10748817D2246001D07F036F9A2
:100F100006460EB1022000E00120054600BF28462B
:100F200070BD0000C425002010B500240AE0204652
:100F300008F04CFF20B9204608F03EFF204610BDC7
:100F4000601CC4B2182CF2DB1820F8E710B5044678
:100F5000204608F03BFF10B10248005D10BD0020A4
:100F6000FCE70000DD25002070B505460C46204654
:100F700008F02CFF30B10448015D2A46153807F00F
:100F8000FDF870BD0020FCE7DD25002070B50546AA
:100F90000C461646204608F019FF30B103480119E7
:100FA00033462A46153807F021F970BDDD250020AB
:100FB00030B5024613880B701C0A4C700224204680
:100FC00095780446401C0D55D5780446401C0D55B7
:100FD00015790446401C0D5555790446401C0D55A5
:100FE00095790446401C0D5530BD2DE9FC41054660
:100FF0000C46174620880930B84202D90C20BDE8BB
:10100000FC8168466DDF064600BF0EB13046F6E74C
:1010100000BF0820218868542088401C20801B20A5
:10102000218868542088401C208020882844DDF8CE
:1010300001100160BDF8051081802088801D20808E
:101040009DF80000400818B900202188685402E08B
:101050000120218868542088401C20800020CEE791
:101060007FB5044600BF01208DF80E0041F60A004E
:10107000ADF80C0000BF564A03A90120A0DF0546C9
:1010800015B1284604B070BD208800280DDD5148F8
:101090000090228804F13C0342F62920616800F0A8
:1010A000D5FE05460DB12846ECE7208900280DDD68
:1010B00049480090228904F13C0342F62420E1686B
:1010C00000F0C4FE05460DB12846DBE7208A002863
:1010D0000DDD42480090228A04F13C0342F62520AF
:1010E000616900F0B3FE05460DB12846CAE7208BC2
:1010F00000280DDD3A480090228B04F13C0342F6B3
:101100002720E16900F0A2FE05460DB12846B9E7A7
:10111000208C00280DDD33480090228C04F13C0324
:1011200042F62620616A00F091FE05460DB1284680
:10113000A8E7208D00280DDD2B480090228D04F1BA
:101140003C0342F62820E16A00F080FE05460DB11E
:10115000284697E7206B90B101A8216B08F046F86C
:10116000224804F13C03082201A9009042F6232002
:1011700000F06CFE05460DB1284683E700BF606BAA
:1011800070B11B480090606B027904F13C03016868
:1011900042F62A2000F05AFE05460DB1284671E7B6
:1011A000A06B90B101A8A16B06F0F6FA114804F10A
:1011B0003C03072201A9009042F6502000F046FEB1
:1011C00005460DB128465DE700BF00205AE7000044
:1011D00020220020222200202A2200203222002069
:1011E0003A220020422200204A22002052220020DF
:1011F0005A2200206222002010B5044621460D48E4
:1012000000F09DF821460C48FFF766FD2046FFF7E9
:10121000BDFD2046FFF7FEFD204606F081F8204682
:1012200000F02CFA204604F055FB2046FFF7C8FBDF
:1012300010BD000004230020EC220020F8B5044675
:101240000E46306820604FF6FF70E082B07A20765C
:1012500000BF01208DF8020041F60900ADF8000042
:1012600000BF221D69460120A0DF05460DB12846BA
:10127000F8BD3146204602F0B7FC05460DB12846C0
:10128000F6E7707A38B13146204602F0A5FD0546F2
:101290000DB12846ECE70020EAE7FEB504460D460E
:1012A0000020009001900220ADF800000020ADF871
:1012B000020002A801906189E08A6A46A5DF06461D
:1012C0001EB902A800F068F8287043F20140864277
:1012D00002D100202870FEBD3046FCE7F0B58BB08F
:1012E00004460F46E08A4FF6FF71884223D006AAD3
:1012F0003946204602F0F8FC06460596002001908B
:10130000029003900490E088ADF8040002208DF86C
:1013100006000020ADF8080005A8039006A8049078
:10132000E08A01A9A6DF054625B9BDF81400B04240
:1013300000D00C2500E0082528460BB0F0BD70B5A4
:1013400005460C462088102806D0112809D05028C0
:101350000CD0532814D10EE02146284604F0E7FBB8
:101360000FE02146284604F013FC0AE021462846F7
:1013700004F008FD05E02146284604F03FFC00E0AB
:1013800000BF00BF70BD70B504460D462846FEF78D
:1013900077F82080656070BD70B50446204608F07F
:1013A00085FC0546C5F3400070BD70B50446204677
:1013B00008F07CFC054605F0010070BD2DE9F04108
:1013C00005460E46002432782146641C6A54727821
:1013D0002146641C6A5400BF022C01D1012000E0A8
:1013E0000020074637B900BF04A22C210020FEF7D9
:1013F00067FE00BF00BF2046BDE8F0812E2E5C2EA8
:101400002E5C2E2E5C2E2E5C2E2E5C2E2E5C636FA0
:101410006D706F6E656E74735C626C655C636F6D2E
:101420006D6F6E5C626C655F7372765F636F6D6D1E
:101430006F6E2E630000000070B588B02F48006802
:10144000079000BF002350222D4907A807F032FE65
:10145000054600BF2E463EB100BF2AA240F24D31E4
:101460003046FEF72DFE00BF00BF00BF6A460121D7
:10147000002007F0FFFD044600BF25463DB100BF38
:1014800020A240F253312846FEF71AFE00BF00BFEB
:101490001720ADF81000684607F0D8FD044600BFDD
:1014A00025463DB100BF17A240F25D312846FEF748
:1014B00007FE00BF00BF174807F0BCFD044600BF91
:1014C00025463DB100BF0FA240F261312846FEF72C
:1014D000F7FD00BF00BF104807F040FE044600BF04
:1014E00025463DB100BF07A240F265312846FEF710
:1014F000E7FD00BF00BF08B070BD0000D4A202002D
:10150000D82300202E2E5C2E2E5C2E2E5C6D616961
:101510006E2E6300F9110200DB91020010B5014646
:10152000094B585C00BF4FF0A044234600BFD3F8DE
:101530001045C44004F001040CB1012000E000207B
:10154000024682F0010010BDF4A2020010B502466E
:101550000949885C00BF4FF0A0442146D1F804350A
:10156000012484409C43C1F80845012484401C4068
:10157000C1F80C4500BF10BDF0A2020010B5044632
:101580000249085D012104F0B0F810BDF0A202008C
:1015900010B504460249085D002104F0A6F810BD0C
:1015A000F0A2020010B50146094B585C00BF4FF095
:1015B000A044234600BFD3F80445C44004F001040E
:1015C0000CB1012000E00020024682F0010010BDB5
:1015D000F0A202007CB500240CE00948055D002063
:1015E00000900346012211460190284604F01AF8A3
:1015F00000BF641C042CF0D300F004F87CBD000094
:10160000F0A2020010B5002403E02046FFF7B6FF69
:10161000641C042CF9D310BD10B5002403E020464F
:10162000FFF7B6FF641C042CF9D310BD02464FF03F
:10163000FF30002106E0054B5B5C934201D1084678
:1016400002E0491C0429F6D300BF7047F4A202004F
:1016500070B505460C4600260648056014B12046C4
:1016600007F08FFD0448006810B9FEF7FDFB064641
:10167000304670BD802100208421002070B50546D1
:101680002888102802D011282CD115E017480068AE
:1016900060B900F07DFE044600BF34B11448006814
:1016A00018B1204612490968884700BF0F480068F2
:1016B000401C0E49086016E00C480068401E0B49AB
:1016C00008600846006860B9FEF7CEFB044600BF1C
:1016D00034B10748006818B12046054909688847B1
:1016E00000BF00E000BF00BF70BD000084210020EB
:1016F000802100202DE9F04106460F464FF00008FA
:1017000000243046FFF792FF0446042C41D227B351
:10171000012F02D0022F3BD133E004EB44002349D8
:1017200011F8008004EB44000844407868B1204878
:10173000006800EB800041001E4A1F480068FEF769
:1017400077FD05460DB91B48067004EB44001749A8
:1017500008448078194908551AE017480068FEF7D0
:1017600091FD1648005D04EB4401104A114489784C
:10177000884205D104EB44001146084490F80280E9
:1017800006E004EB44000949084490F8018000BFDA
:1017900000BFB8F1000F06D00948006818B14046F4
:1017A000074909688847BDE8F0810000A8240020A7
:1017B0006C2100207821002000A302007921002064
:1017C0007421002010B504462046FFF7A7FE10BD87
:1017D00070B50546042D09D0072D1BD00A2D02D067
:1017E0000E2D38D12EE007F0A7F935E013211B4864
:1017F000008876DF0446082C0BD000BF26463EB199
:1018000000BF17A24FF45F713046FEF759FC00BFCE
:1018100000BF21E0114800884FF6FF71884210D1C7
:10182000FFF70EF90446082C0BD000BF26463EB148
:1018300000BF0BA240F286313046FEF741FC00BFEC
:1018400000BF09E0054800884FF6FF71884201D0CB
:1018500007F036FD00E000BF00BF70BD282100206A
:101860002E2E5C2E2E5C2E2E5C6D61696E2E63001A
:1018700030B503460020042B23D2012A07D10129C9
:1018800003D103F10E04E4B200E00024224679B152
:10189000012902D0022911D104E003EB43040A4DCF
:1018A0002A550DE003EB4304074D2C44627007E01A
:1018B00003EB4304044D2C44A27001E0072000BF59
:1018C00000E0072030BD0000A824002070B50446C9
:1018D00000250548007800F0010018B1204600F00E
:1018E0005FF80546284670BD702100202DE9F041C3
:1018F00005460E46904600241F4806601F480560B6
:101900001F48C0F8008005F00200F8B1002706E08B
:10191000012211463846FFF7ABFF04467F1C042F17
:1019200001D2002CF4D02CB9720804211548FEF71E
:1019300069FB044614B9FEF74FFB04462CB9124A62
:1019400000211248FEF710FC044600BF05F001001C
:1019500008B1FFF73FFE2CB90D4A00210D48FEF7F4
:1019600003FC04462CB90C4A01210C48FEF7FCFB91
:1019700004462046BDE8F0816C2100207021002043
:101980007421002004A30200ED1C020000A3020049
:1019900065460200F8A20200CBFF0100FCA2020093
:1019A0002DE9F041044600260025CB48007820B1FF
:1019B0000020C9490870FFF725FE192C70D2DFE816
:1019C00004F00D1213386390BAC8F8F6F5F4F3F288
:1019D000F1F0EFEEEDECEBEAE932E800FFF712FE92
:1019E000BE48047074E100BF0020FFF7DBFD28B1A2
:1019F0000020FFF7C3FD4FF47A7503E00020FFF7E6
:101A0000C7FD6425B54804706420B5FBF0F0B44907
:101A1000096800FB01F700223946B2480068FEF76A
:101A200007FC064654E10020FFF7B2FDAB48047006
:101A30004EE10020FFF7B6FD58B10020FFF79EFDF4
:101A4000032C02D14FF4487001E04FF47A60054650
:101A500009E00020FFF79CFD032C01D1C82001E024
:101A60004FF4C87005469D4804706420B5FBF0F043
:101A70009B49096800FB01F7002239469948006834
:101A8000FEF7D6FB064623E10020FFF78BFD60B191
:101A90000020FFF773FD042C03D14FF47A6002E0BD
:101AA00015E14FF47A6005460AE00020FFF770FD6B
:101AB000042C02D14FF4C87001E04FF4C870054601
:101AC000864804706420B5FBF0F08549096800FB86
:101AD00001F70022394683480068FEF7A9FB064655
:101AE000F6E00020FFF75EFD50B10020FFF746FD55
:101AF000052C01D1C82001E04FF47A60054609E0C9
:101B00000020FFF745FD052C01D1C82001E04FF46E
:101B1000C8700546714804706420B5FBF0F0704948
:101B2000096800FB01F7002239466E480068FEF79D
:101B30007FFB0646CCE00020FFF708FD67480470F5
:101B400067480022016867480068FEF771FB064697
:101B5000BEE00020FFF726FD28B10020FFF70EFDB4
:101B60004FF47A6504E00020FFF712FD4FF4C875CA
:101B70005A4804706420B5FBF0F05949096800FB2D
:101B800001F70022394657480068FEF751FB064628
:101B90009EE097E095E089E080E077E071E04DE03D
:101BA0004BE049E047E045E03FE02EE01FE00EE07B
:101BB000FFE7012048490870FFF7C8FC48480022A9
:101BC000016848480068FEF733FB064680E00120C4
:101BD00041490870FFF7BAFC4148006800EB8001FA
:101BE000002240480068FEF723FB064670E0012013
:101BF00039490870FFF7AAFC3948002201683948C2
:101C00000068FEF715FB064662E0012032490870C5
:101C1000FFF79CFC3248006800EB8001002231484D
:101C20000068FEF705FB064652E0FFF7F5FC2B487F
:101C300004704DE000BF00BF00BF00BF2A4800682D
:101C4000FEF720FB0646C4F11105B5B1AEB9012D72
:101C50000FD9C82068436421B0FBF1F0204909681E
:101C600000FB01F7002239461F480068FEF7E0FA42
:101C700006460220FFF78CFC02E00220FFF77EFC04
:101C800026E0FFF7BFFC1548047021E0FFF7BAFC1F
:101C90000020FFF77DFC1148047019E0FFF7B2FC4B
:101CA0000120FFF775FC0D48047011E0FFF7AAFC56
:101CB0000020FFF76DFC0120FFF76AFC0748047065
:101CC00006E000BFFFF7A8FC0448047000E000BF76
:101CD00000BF3046BDE8F081692100206821002066
:101CE0006C210020F8A20200FCA2020010B50446FC
:101CF00020780221FFF7FEFC10BD0000F8B5054674
:101D0000164A40F6CD410320FFF7F0FD044600BF20
:101D100026463EB100BF12A240F2ED313046FEF73A
:101D2000CFF900BF00BF69460020FFF791FC0446D1
:101D300000BF26463EB100BF09A24FF47C71304679
:101D4000FEF7BEF900BF00BF9DF80000022801D1D8
:101D5000012000E000202870F8BD0000D11702002B
:101D60002E2E5C2E2E5C2E2E5C6D61696E2E630015
:101D700001468879012809D10879012806D14888C7
:101D800042F60212904201D1012070470020FCE788
:101D90004FF0FF31054A42F82010082804DBFF23EA
:101DA000A0F108015032535470470000382A002037
:101DB0000146024850F8210070470000382A0020F0
:101DC0002DE9F04F03460C464FF0FF390AB10020D1
:101DD00000E0082084460AB1082000E00C2080467C
:101DE000614624E0154850F82100401CF0B91D461A
:101DF0000846274616464FFA80FBDFF840A00AF156
:101E0000300A0AF805B0DFF834A04AF820704EB95D
:101E10004FFA85FBA0F1080ADFF820E00EF1500E22
:101E20000EF80AB000BF4FFA81F902E0491C4145A3
:101E3000D8D300BF4846BDE8F08F0000382A002004
:101E40000146014840567047682A00202DE9F043BA
:101E50008FB007460D4614461E46DDF8588000BF79
:101E60000DB1012000E000208146B9F1000F06D13C
:101E700000BF35A26C210020FEF722F900BF00BF91
:101E800000BF002C01DD012000E000208146B9F1F7
:101E9000000F06D100BF2CA26D210020FEF710F923
:101EA00000BF00BF1C2107A8FDF7DFFA9DF81C004A
:101EB00020F00200801C8DF81C00002008900A9081
:101EC0000B900C900D9000BF01208DF83A00ADF8FA
:101ED000387000BF0020019030788DF804007078D1
:101EE0008DF805009DF8060020F00600801C8DF896
:101EF00006009DF8060020F008008DF806009DF809
:101F0000060020F010008DF806009DF8060020F075
:101F100001008DF80600142102A8FDF7A6FA0EA80C
:101F2000029001A80390ADF810400020ADF8120017
:101F3000ADF814400695434602AA07A91248008846
:101F4000A2DF0FB0BDE8F0832E2E5C2E2E5C2E2E6D
:101F50005C2E2E5C2E2E5C2E2E5C636F6D706F6E71
:101F6000656E74735C626C655C626C655F736572F0
:101F700076696365735C626C655F6469735C626CEF
:101F8000655F6469732E630020220020014639B129
:101F90000448884204D80448884201D90120704787
:101FA0000020FCE7DC220020EC22002070B5054672
:101FB0000E46002407E055F8340002F045FB08B94E
:101FC000002070BD641CB442F5D30120F9E7000085
:101FD0000A49496C81B10949096C084A02EBC101FF
:101FE0000160114691F84010491C01F0070111648D
:101FF0001146496C491E516470470000942B002023
:10200000064902688A4203D00168083101607047BE
:1020100002493839016000BFF9E70000CC2B0020ED
:102020000178022902D0017803290BD106490A6CF4
:10203000817D1144044A116411464A6C817D511A14
:10204000014A516470470000942B00202DE9F041B3
:1020500004460D464FF6FF76304684420AD14FF4CF
:102060008071284605F016F90646B6F5807F0FD137
:1020700026460DE0FF2C0BDC2146284605F0FAF839
:1020800007460FB1204601E04FF6FF70064600BF3D
:102090003046BDE8F081000070B505460DB9094C29
:1020A00001E0084C083409E0204602F0D5FA064663
:1020B00006B904E028467168884700BFF4E700BF0E
:1020C00070BD00002C2A00202DE9F04782461F48F1
:1020D0000068002836D01D480068056805F0E8FE55
:1020E00007461B4804682146384607F007F9C61C16
:1020F0001848007808B905F0EDFEAE4201D2284636
:1021000000E03046044424F07F44204605F0CAFE37
:1021100005F0CEFE80463946404607F0EFF800F164
:1021200003093946204607F0E9F8814509D905F049
:10213000BFFE814605F0B6FE2F2002F091FF07F0AA
:1021400055FA01E005F0E4FEBDE8F08788220020A2
:102150008C220020A022002001460888062808DBE7
:102160000888B0F5486F06DD08884FF6FF72904288
:1021700001D0072070474888062808DB4888B0F55A
:10218000486F06DD48884FF6FF72904201D0072065
:10219000F0E708884FF6FF72904208D048889042D6
:1021A00005D008884A88904201DD0720E2E7002038
:1021B000E0E72DE9F04106460D4614469846208892
:1021C000801D404502D90C20BDE8F0813046FFF764
:1021D000C3FF074600BF0FB13846F5E700BF052033
:1021E000218868542088401C20801220218868544F
:1021F0002088401C208022885119308807F05CFD1F
:1022000021880844208022885119708807F054FDE5
:102210002188084420800020D6E7000010B504463D
:1022200000BF04A240F26D212046FDF749FF00BF28
:1022300010BD00002E2E5C2E2E5C2E2E5C6D616972
:102240006E2E630030B587B01C216846FDF70DF98E
:10225000002000904FF4203001904FF47020029045
:1022600003208DF80C000020ADF80E008DF8100052
:102270000A4805900A4806906846FEF74FFD044656
:1022800000BF25463DB100BF06A24FF4217128468C
:10229000FDF716FF00BF00BF07B030BD995A02001E
:1022A0001D2202002E2E5C2E2E5C2E2E5C6D61698E
:1022B0006E2E630038B51B4802F0A8F920BB1A48FF
:1022C000007848B119484069E8B1002000901748EB
:1022D00041696846884716E01548007810B91348E8
:1022E000456801E0114885680022294611480068C8
:1022F000FDF79EFF044634B10C48806918B10B48C5
:1023000081692046884709E00848406930B10120CA
:102310000090064841696846884700BF002002498E
:10232000087038BDB4210020BC2100208825002081
:10233000B021002024A302003EB504462088FEF709
:1023400051FDD0B1208810490978FEF70DFE28B95B
:10235000208800220D490978FEF718FE2088ADF884
:10236000020005208DF800002088FEF747FD8DF85B
:102370000400684600F044FB05E02088012241F299
:10238000060100F06FF93EBD072200200622002062
:1023900010B5012200210846FFF76AFA044600BF83
:1023A0001CB1072C01D0204610BD00BF072202211E
:1023B0000120FFF75DFA044600BF1CB1072C01D0D5
:1023C0002046F1E700BF042202210020FFF750FA67
:1023D000044600BF1CB1072C01D02046E4E700BF33
:1023E0000020E1E770B506460D460EB1012070BD34
:1023F000287920B1012809D0022813D10FE02846FE
:1024000005F0D4FB0446022028710DE0284600F0B8
:1024100077FD04460A2C01D141F61D5404E041F633
:102420001D5401E00F2400BF00BF2046DFE700007D
:102430002DE9F0478146002532E01C48006800EB9A
:10244000C5042178012000FA01F6194800683040DF
:1024500020B317480068B04315490860207802F09F
:10246000E7FF0746217801208840124909680840A3
:10247000217807FA01F188420FD16078012800D154
:1024800000E00020784080F00108606820B108F08A
:10249000FF0120786268904700BF00BF681CC5B28A
:1024A000054800788542C8DBBDE8F0876C22002033
:1024B0007C22002078220020702200207FB51E4B55
:1024C0000FCB8DE80F0000231C4A69461C4803F01F
:1024D0000FF8044600BF254635B100BF19A22C21D4
:1024E0002846FDF7EDFD00BF00BF154802F0EEFFE6
:1024F000002019490860486088600320C8600620F1
:1025000008610C204861192088613220C86164206C
:102510000862C8204862400088624000C8624000EB
:10252000086340004863400088630C490878022231
:1025300002F0AAFC7FBD0000E0A2020001970200A9
:10254000D8A202002E2E5C2E2E5C2E2E5C6D6178A1
:1025500033303230352E63002824002062210020E1
:1025600070B500240026002502220E49002002F04A
:102570004FFC0C48007800020A49098800EB112042
:1025800086B200BF0AE046FA04F000F0010018B17C
:10259000054850F824000544601CC4B20E2CF2DB40
:1025A000284670BD6421002028240020F0B50522B3
:1025B0000320014600231C461D4600BF17073E4668
:1025C00043EA440747EA800747EA052747EA014C00
:1025D00006F5E06747F822C000BF00BFF0BD70B548
:1025E000044620793D2802D141F23D0001E04FF43C
:1025F0008850054620880022294602F09FF970BDC8
:10260000014614480078144A127890421DD01148AF
:102610000078401C0F4A107010460078022801D143
:10262000002010700D480B4A127850F82200086004
:102630000B4A086812681044094A10601046006886
:1026400020F07F401060012070470020086000BF2C
:10265000FAE7000098220020992200209022002012
:102660008C220020FEB504460D461646094A07CACC
:102670008DE80700ADF80240ADF804508DF8066013
:102680000022054801782046FEF780FC684600F0ED
:10269000B7F9FEBD98A302000622002010B504463B
:1026A000A08928DF10BD000013480078062820D13B
:1026B0001148001D007800F00F00D0B90E48083016
:1026C000007800F0F000302801D1012070470A485E
:1026D0000830007800F0F000402801D10120F5E733
:1026E00005480830007800F0F000502801D10120A2
:1026F000ECE70020EAE70000E00F00F00A4800786D
:1027000006280ED10848001D007800F00F0040B9DF
:1027100005480830007800F0F000302801D1012091
:1027200070470020FCE70000E00F00F0134800783D
:10273000062820D11148001D007800F00F00D0B904
:102740000E480830007800F0F000302801D1012058
:1027500070470A480830007800F0F000402801D1A6
:102760000120F5E705480830007800F0F000502817
:1027700001D10120ECE70020EAE70000E00F00F0C3
:102780000A48007806280ED10848001D007800F09D
:102790000F0040B905480830007800F0F0003028FC
:1027A00001D1012070470020FCE70000E00F00F09D
:1027B00013480078062820D11148001D007800F049
:1027C0000F00D0B90E480830007800F0F000302833
:1027D00001D1012070470A480830007800F0F0006D
:1027E000402801D10120F5E705480830007800F0C5
:1027F000F000502801D10120ECE70020EAE70000BA
:10280000E00F00F00A48007806280ED10848001DA5
:10281000007800F00F0040B905480830007800F05B
:10282000F000302801D1012070470020FCE70000B3
:10283000E00F00F00A48007806280ED10848001D75
:10284000007800F00F0040B905480830007800F02B
:10285000F000302801D1012070470020FCE7000083
:10286000E00F00F00A48007806280ED10848001D45
:10287000007800F00F0040B905480830007800F0FB
:10288000F000502801D1012070470020FCE7000033
:10289000E00F00F00278072A34D2DFE802F03304B8
:1028A00007102029300000220A702CE001220A7053
:1028B00003898B818388CB81C2688A6023E00222EE
:1028C0000A7003898B818388CB81C2688A60027C0D
:1028D000062A01D1012300E000230B7413E0032238
:1028E0000A70C3888B810389CB81C2688A600AE041
:1028F00004220A70C3888B810023CB8103E0052268
:102900000A7000E000BF00BF7047000070B50546C8
:10291000002409E0064850F8240020B1044850F88B
:10292000241028468847641C082CF3D370BD00008F
:10293000FC2A00203EB505460C46DCB1112C19D00E
:102940000020009001900290ADF8025001940D2CEF
:1029500003D10B208DF8000008E0862C03D10A205B
:102960008DF8000002E009208DF80000684600F0B4
:1029700057F800BF3EBD000070B50546002405E0D5
:10298000044850F8241028468847641C002CF7D0CF
:1029900070BD0000C021002070B50546002405E090
:1029A000044850F8241028468847641C002CF7D0AF
:1029B00070BD0000CC21002070B50546002405E064
:1029C000044850F8241028468847641C022CF7D38A
:1029D00070BD000040A3020070B50546002405E06C
:1029E000054850F8241028468847641C034800789E
:1029F0008442F5DB70BD0000D829002002220020AF
:102A000070B50546002405E0044850F82410284617
:102A10008847641C022CF7D370BD000060A302003D
:102A200070B50546002405E0044850F824102846F7
:102A30008847641C002CF7D070BD0000A4A30200DE
:102A4000F0B5034600241FE0124E306806689E422F
:102A500003D90668F61A06601AE006689B1B06682A
:102A60003444002606600B4E35680A4FC6693E6046
:102A7000C66846B10E1926F07F464660C668866075
:102A80001668C661156000BF024800680028DBD1E7
:102A900000BFF0BD882200201FB50446606808B959
:102AA000012000E000200390207806287BD2DFE898
:102AB00000F0820304304F7B00BFA08900F045FA8C
:102AC00018B9E08905F081F910B3A08900F038FA4F
:102AD000ADF80200E08905F075F98DF80400207862
:102AE000012807D1606808B9002000E003208DF8B4
:102AF000000006E0606808B9012000E004208DF8BD
:102B0000000060680390A0680290684603F028FE09
:102B100052E0A08900F019FA18B9E08905F055F9DA
:102B2000A8B1A08900F00CFAADF80200E08905F028
:102B300049F98DF80400606808B9022000E005201A
:102B40008DF80000A0680290684603F009FE33E0AB
:102B5000A08900F0FAF928B3E08918BBA08900F039
:102B6000EFF9ADF80200E08905F02CF98DF80400CA
:102B7000FF208DF80400606838B906208DF8000049
:102B8000BDF8020004F002F802E007208DF8000012
:102B900000200E4908700E49087003F041FF684696
:102BA00003F0DEFD08E006E008208DF8000068462E
:102BB00003F0D6FD00E000BF00BF0448007820B15C
:102BC00000200249087003F02BFF1FBDDD2100200B
:102BD000DE21002010B588B00446022000F0DCF9A8
:102BE00010B9022008B010BD4FF6FF70844201D129
:102BF0000420F7E705208DF8040001208DF8080077
:102C0000ADF80A400022114601A803F0C9F818B136
:102C100004F040FF0020E5E70820E3E700B587B0B7
:102C2000022000F0B9F910B9022007B000BD06205B
:102C30008DF8000000221146684603F0B1F848B153
:102C40000548007810B101200349087304F022FF01
:102C50000020EAE70820E8E7FC2B002010B58CB044
:102C6000142107A8FCF701FC022000F095F928B117
:102C700007A8FFF74BFE00200CB010BD012000F0AC
:102C80008BF908B10020F7E7012000F091F900F07E
:102C90005FFA03F091F904460CB90B20ECE7062C1F
:102CA0000AD1022000F084F9012000F05BF907A8A6
:102CB000FFF72CFE0020DFE701208DF800000C2C30
:102CC0001AD2DFE804F01906190719141915190B9F
:102CD000100C00BF00208DF804000EE000BF0320A0
:102CE0008DF8040009E002208DF8040005E000BF23
:102CF00001208DF8040000E000BF00BF0022114653
:102D0000684603F04DF804F0C5FE0020B4E700006B
:102D100038B504460CB9052038BD6946204604F094
:102D200069FFE0B10F48BDF8001000EB0110808989
:102D3000002812DDA07A80B10A48BDF8001000EB2F
:102D400001108089401E0749BDF8002001EB0211E7
:102D500088810020A072002502E0062500E00A25F7
:102D60002846D9E7DC2B00207FB514461D462B46AC
:102D7000224601A9684604F0D5FE04B070BD37B5FF
:102D80000C4615462B4622466946002004F0CAFE32
:102D90003EBD37B50C4615462B46224600216846F7
:102DA00004F0C0FE3EBD024602B109B905207047DD
:102DB000106808600020FAE738B504460D4604B1F3
:102DC0000DB9052038BD6946204604F013FFA8B1AF
:102DD00061680B48BDF8002000EB02108089401CA0
:102DE000074ABDF8003002EB031290812960606849
:102DF0000C3068600120A0720020E3E70A20E1E7C0
:102E0000DC2B002070B504460D460CB9052070BDC2
:102E1000032300222946204607F038F9F7E770B56A
:102E200004460D46022300222946204607F02EF9CB
:102E300070BD70B505460E4614460CB9052070BD30
:102E4000022322463146284607F020F9F7E7000022
:102E50000146094A1278082A01D10C200AE0074AE3
:102E6000054B1B7842F82310034A1278521C024B80
:102E70001A70002070470000A5220020FC2A0020C4
:102E8000F8B504460D46022000F086F808B9022085
:102E9000F8BD0CB90520FBE76946284607F0E2F9C2
:102EA00006461EB9BDF80000208065803046EFE779
:102EB00070B50446022000F06FF808B9022070BD1A
:102EC0000CB90520FBE72088022801DD0420F6E785
:102ED00020880A4901EB001671896088C01C081A15
:102EE00008D42188608807F0AFF900202080608036
:102EF000002500E004252846E1E70000DC2B002047
:102F00003EB504460C4B6A460021A01D04F00AFEA3
:102F100005465DB9019804F0DBFE0546012006492F
:102F20008988064A02EB0111887303E002480021F8
:102F30000160416028463EBDB4220020DC2B002009
:102F40000146A1F5404080B270470146B1F5404FBF
:102F500005DB4FF6FE70814201DC01207047002046
:102F6000FCE70000024909788143014A117070476B
:102F7000A422002010B504462078182802D1FDF7BD
:102F8000D3FF207010BD10B504462078182802D158
:102F9000FDF7CAFF207010BD0146044800780840C4
:102FA00008B1012070470020FCE70000A4220020A7
:102FB000024909780143014A11707047A422002098
:102FC00030B504461088C01C984201D90C2030BD91
:102FD0000220158848551088401C10800120158853
:102FE00048551088401C108015884C551088401C8E
:102FF00010800020EBE700002DE9F04106460C466A
:1030000015460027B846862C03D0112C01D0002C81
:1030100035D1862C03D14FF00008012709E0112C8F
:1030200003D14FF00108002703E014B94FF0000866
:103030000027C5B13A46134801783046FDF7A6FF90
:103040004246114801783046FDF7A0FF00220F48A4
:1030500001783046FDF79AFF00220D48017830468E
:10306000FDF794FF0BE03A46084801783046FDF73B
:103070008DFF4246064801783046FDF787FFBDE8E0
:10308000F08100001D2200201C22002019220020B7
:103090001822002008B5684600F0BAF8009808B178
:1030A000012008BD0020FCE7F8B505460C46164691
:1030B0001F461C48007800F0010008B90120F8BD47
:1030C0002846FEF763FF08B90220F8E70CB9032091
:1030D000F5E7C4F30B0008B10620F0E72868A0422A
:1030E00004D804EB06306968884201D90520E6E778
:1030F0000EB90420E3E7684604F010FC08B9072085
:10310000DDE700984760009805600220009908728A
:10311000C4F30F30009988810098068204F0C6FC41
:103120000020CCE7BC22002070B505460C462046A6
:1031300004F028FC70BD4FF010204169481C08B114
:10314000084670474FF0805040690003F9E70000DF
:103150002DE9F0412B482C49401A04092948401A0E
:103160000509FFF7E8FF06462848007800F001004F
:1031700010B10020BDE8F081002008E0224A02EBF7
:1031800000110A6812B14A6802B16D1E401CA042CB
:10319000F4D300202BE01C4901EB00124FF0000C8F
:1031A000C7B2002117E0DFF8608008EB0113D3F805
:1031B0000080B8F1000F05D0D3F80480B8F1000FFB
:1031C00000D007E093F80D80E04502DD93F80DC0D4
:1031D000CFB200BF491CA142E5D30B4901EB071256
:1031E0005660117BA6EB013111601668401CA842A5
:1031F000D1D30648007840F001000449087000204F
:10320000B8E70000EC220020DC220020BC220020D5
:10321000014609B9032070470248406E086000204B
:10322000F9E70000182C00202DE9F84305460C466C
:1032300016461F46DDF820801F48007800F0010088
:1032400010B90120BDE8F8832846FEF79FFE08B9B3
:103250000220F7E706B10CB90320F3E706F00300FC
:1032600010B904F0030008B10620EBE72868A0427B
:1032700004D804EB87016868884201D20520E1E7A1
:103280000FB90420DEE7684604F048FB08B90720C0
:10329000D8E70098C0F804800098056001200099E4
:1032A00008720098C660009804610098878204F054
:1032B000FDFB0020C6E70000BC22002070B50446DC
:1032C0001748006E00EB4000154901EBC00515489A
:1032D000007800F0020068B1022C02D0032C08D163
:1032E00003E0284602F0B0FC03E0284602F096FC1A
:1032F00000BF12E00B48007800F0040068B10948F4
:10330000007820F00400074908700548406E20B19D
:103310000846007840F00200087004F085FB70BD9C
:10332000182C0020BC2200203EB500BF9DF80000F4
:1033300020F00F00401C00909DF8000020F0F000ED
:103340001030009000BF0E2220A168467CDF0446AA
:1033500000BF25463DB100BF20A240F2A111284682
:10336000FCF7AEFE00BF00BF4FF4407078DF0446AC
:1033700000BF25463DB100BF18A24FF4D2712846C8
:10338000FCF79EFE00BF00BF0020019002904FF4AA
:10339000C870ADF804004000ADF806000020ADF89C
:1033A00008004FF4C870ADF80A0001A87ADF04469F
:1033B00000BF25463DB100BF08A24FF4D771284693
:1033C000FCF77EFE00BF00BF3EBD00006865616C7B
:1033D00074686D6574656D70657200002E2E5C2ECC
:1033E0002E5C2E2E5C6D61696E2E630070B50546F5
:1033F0000DB1012070BD1848007B18B1002016499E
:10340000087301E000F0D4F81348007808281DD2B2
:10341000DFE800F01C04080C101C141800F03CF845
:10342000044615E000F0B2F8044611E000F08EF812
:1034300004460DE000F044F8044609E000F01CF9F1
:10344000044605E000F028F9044601E00F2400BF1F
:1034500000BF2046CEE70000FC2B00200C4800896E
:10346000401C0B49088100204880087300BF0CE015
:10347000084901EB0011097809B9012200E0002296
:1034800003490A310A54411C88B20228F0DB704714
:10349000FC2B0020DC2B002010B5084800F032F88F
:1034A00040B900200549891E08704880486041F6EF
:1034B0001D5010BD00F06AF8FBE70000FE2B002055
:1034C00070B50D4845880D4800EB0510808968B936
:1034D0000A4800EB05100023012241680848FFF765
:1034E000E3FD044604200449087002E000F08CF873
:1034F0000446204670BD0000FC2B0020DC2B002081
:10350000DC22002010B501460022002015E00D4B02
:103510001B5C83B100240B4B1C540B4B03EB0013BF
:103520009B8943B9084B03EB00139B7B012B02D112
:103530000880012203E0431C98B20228E7DB00BFA9
:10354000104610BD062C0020DC2B0020F8B50C48DE
:1035500044680C4800680B49898800EB8105608845
:10356000C01C86B20320064908700020009008465F
:103570003346294642680448FFF756FEF8BD00006E
:10358000FC2B0020AC220020DC22002010B50749D3
:103590004888091D04F06CFB18B1FFF7D7FF0446FB
:1035A00002E0FFF78DFF0446204610BDFC2B0020F3
:1035B00010B514480078082820D2DFE800F0041F76
:1035C0001F0A1016171BFFF749FF01200D4908704D
:1035D00015E000F06DF802200A4908700FE000F0D5
:1035E00029F806200749087009E000BF07200549AF
:1035F000087004E001200349087000E000BF00BF2C
:1036000010BD0000FC2B002010B5052006490870F5
:1036100002200649888008460023012201680448E8
:10362000FFF742FD10BD0000FC2B0020AC22002063
:10363000DC2200200D4908680D4949880D4A02EB3B
:1036400001114968094A116009494988094A02EB90
:103650000111486005498988054A5288054B03EBEA
:10366000021211810221014A91807047AC22002090
:10367000FC2B0020DC2B002010B50620044908702C
:103680004988044A02EB0111486802F073FC10BD3E
:10369000FC2B0020DC2B002010B50720034908700C
:1036A0000020486002F076FC10BD0000FC2B0020DA
:1036B000054A50684288D21C91B2044A92880A4452
:1036C000024B9A8070470000FC2B0020AC220020A7
:1036D0003EB504462088502821D0522802D05428D4
:1036E00025D103E0A08801F059FA20E006208DF8EA
:1036F0000000A08800F04AFDADF80200A088ADF8F7
:103700000400BDF8020000F04FF9A08800220C4927
:103710000978FDF73BFC6846FFF72EF907E0A01D8E
:10372000FEF726FB10B1A08801F088FA00BF00BFA9
:10373000FCF734FE06F0CCFA04F04AFF3EBD000070
:10374000C72100203EB504466088ADF8020020780D
:1037500020B101280FD002282BD116E000208DF8CF
:1037600000006846FFF708F9608800F039FC05465C
:1037700001F014FA1DE001208DF80000A088ADF8DA
:1037800004006846FFF7F8F813E0207980B16088FC
:1037900000F026FC05464FF6FF70854207D0012257
:1037A000054801782846FDF7F1FB04F011FF00BF42
:1037B00000BF00BF3EBD0000C721002010B5044679
:1037C000207801280DD1608801F0E8F9608800F0C8
:1037D000CFF928B16088012203490978FDF7D6FBAB
:1037E00000E000BF00BF10BDC721002010B500F0F1
:1037F000EFFDFDF799FB12490870FDF795FB1149A4
:103800000870FDF791FB10490870FDF78DFB0F491B
:1038100008700B48007818280BD00A480078182840
:1038200007D009480078182803D0084600781828DF
:1038300001D1032010BD0120054908700020F9E7DF
:10384000C5210020C6210020C7210020C82100205A
:10385000C421002010B586B000F0BEF801A8FDF725
:10386000B5FA002412E002A931F8140000F08EFC31
:103870004FF6FF71884207D102A931F814000122E6
:1038800006490978FDF782FB601C84B20198A042CA
:10389000E9D804F09DFE06B010BD0000C72100204D
:1038A00010B504462078072803D1608801F0C6F9D6
:1038B00000E000BF00BF10BD10B504460B48017802
:1038C0002046FDF751FB70B100210AE001EB4100F9
:1038D000074A02EB80004088A04201D1C8B210BD67
:1038E000491C0829F2D3FF20F9E70000D721002066
:1038F000F825002010B500240DE004EB4401084A2F
:1039000002EB8101488807490978FDF72DFB08B9CA
:10391000E0B210BD641C082CEFD3FF20F9E70000D3
:10392000F8250020D72100202DE9F04105460F465B
:10393000012000FA05F418480068FCF7A3FC0646CD
:103940000EB1BDE8F081154800682040E0B9284676
:1039500001F06EFD28B1124800682043104908604C
:1039600004E00F480068A0430D4908600B48006858
:1039700020430A49086000220A4801680648006896
:10398000FCF756FC064604E004480068A0430349DF
:10399000086000BFD5E70000F0A302007C220020F1
:1039A00078220020742200201CB50446044903C973
:1039B000CDE9000100226946204602F052FD1CBDFF
:1039C00038A3020010B500F009FD0120014908707C
:1039D000002010BDD021002010B54FF6FF7002F07E
:1039E00021FC0249088004F029FE10BDD2210020EC
:1039F0002DE9FC478146484600F0C8FB05460026F5
:103A000000274FF003084FF0010A4FF6FF70854280
:103A10000CD06A460821284602F0ECFC04462CB97A
:103A20000198861D8788D0F8008000BF00BF4346FC
:103A30003A4631464846A9DF0446042C01D11124F8
:103A400015E0082C01D1002411E00B2C0FD14FF010
:103A5000000A08F0020010B14FF0010807E006B9B3
:103A600027B1002600274FF0030800E003240B2CA9
:103A7000DDD0BAF1000F00D10B242046BDE8FC8751
:103A80002DE9FC478046404600F080FB07464FF694
:103A9000FF70874203D143F20200BDE8FC874FF07C
:103AA00001094FF0000A00BF4FF0000A4A46511CBE
:103AB0001FFA81F96B460821384602F0DDFC044606
:103AC00004BB019D032028602A1DA91D40462B68C8
:103AD000AADF04462CB90821384602F083FD0446CB
:103AE0000FE00C2C02D14FF0010A02E0052C00D1AE
:103AF00000240821384602F059FD064606B1032489
:103B000000BF02E0072C00D10C24BAF1000FCBD18A
:103B100000BF2046C1E700007FB504462078012899
:103B20001BD12079012818D1608802AA012102F056
:103B300061FC054685B902208DF800006088ADF86B
:103B4000020003A808B1012000E000208DF8040065
:103B50006846FEF721FF00BF00BF044800884FF60B
:103B6000FF71884201D004F069FD7FBDD2210020A1
:103B70007CB50446204600F009FB06466A46012152
:103B8000304602F037FC05460DB100207CBD01989F
:103B90000078FBE770B505464FF6FF7600BF4FF69D
:103BA000FF720A4801882846A7DF044643F2030053
:103BB000844204D105480088401C0449088043F22F
:103BC00003008442EBD0204670BD0000D4210020C9
:103BD000014688884FF6FF72904203D0088808B1EA
:103BE000012070470020FCE730B59DB005460C462B
:103BF0000020159000BF9DF8540020F00F00401CDD
:103C00008DF854009DF8540020F0F00010308DF82D
:103C1000540000BF9DF8560020F00600801C8DF86F
:103C2000560020798DF855001C2116A8FBF71DFCC5
:103C30009DF8580020F0200020308DF8580000201A
:103C4000179019901A9015A81B9000201C9000BF87
:103C500001208DF83E0042F61C20ADF83C0000BF6C
:103C600000200E909DF83A0020F00600801C8DF890
:103C70003A0060798DF83800A0798DF839009DF808
:103C80003A0020F008008DF83A009DF83A0020F044
:103C900010008DF83A009DF83A0020F00100401C19
:103CA0008DF83A00142110A8FBF7DFFB202106A8AD
:103CB000FBF7DBFB0FA810900EA8119001AA06A934
:103CC000284600F011F8ADF848000020ADF84A0091
:103CD0001420ADF84C0001A81490A888AB1D10AAC0
:103CE00016A9A2DF1DB030BD2DE9F04781460C4674
:103CF000904600260127207808B146F0010660783A
:103D000008B146F00206207838B146F00106207B63
:103D10000506216961F3170504E020790506A1680D
:103D200061F3170508EB07000570290A4170290C9B
:103D30008170290EC1700421C819C7B2607848B1DA
:103D400046F0020608EB070104F11400FDF730F914
:103D50003844C7B2A07838B146F00406227F38460E
:103D6000791CCFB208F8002088F800603846BDE81A
:103D7000F087000070B50446FEF7F2FB0546002010
:103D8000207001206070A070FE202071A56020735B
:103D90004FF4486121610F48016861614068A0618A
:103DA000042020770B4880791B300A498871084627
:103DB00080793B280DDD084680793C3888710846BB
:103DC0004079401C4871084640793B2801DD0020BD
:103DD000487170BD5821002070B590B005460C4662
:103DE0001C2109A8FBF741FB9DF8240020F00200EC
:103DF000801C8DF8240000200A900C900D900E90ED
:103E00000F9000BF01208DF80E0042F61D20ADF886
:103E10000C0000BF002002909DF80A0020F0060070
:103E2000801C8DF80A00E0798DF80800207A8DF862
:103E300009009DF80A0020F008008DF80A009DF89E
:103E40000A0020F010008DF80A009DF80A0020F00A
:103E500001008DF80A00142104A8FBF706FBA67ADE
:103E6000019603A8049002A805900120ADF818005F
:103E70000020ADF81A000120ADF81C0001A8089040
:103E8000A88805F10E0304AA09A9A2DF10B070BD2D
:103E90003EB504460D4620780221B1EB500F01D00B
:103EA00000203EBDB4F80100ADF80800E0788DF8C0
:103EB0000A00A188ADF80010A0798DF8020001AACF
:103EC00069462846FCF756F8032201A902A8FBF729
:103ED000DEFA08B90120E4E70020E2E770B5064603
:103EE0000C463046FFF7E8FC0546FF2D0CD005EBED
:103EF0004500064901EB8000416821600189A180ED
:103F0000807AA071002070BD0520FCE7F825002014
:103F100070B590B004462088102801D010B070BD54
:103F20003422211D03A8FBF787FA4FF6FF759DF891
:103F300010000321B1EB500F35D002F077FC9DF853
:103F40001000400820B1012803D0022828D114E035
:103F500000BF09E0019800F1110104A8FBF750FE31
:103F600010B1BDF8085006E06A4602A9072002F029
:103F70002FFC0028EED100BF13E008E00198411C9F
:103F800004A8FFF785FF10B1BDF8085006E06A46A7
:103F900002A9072002F01CFC0028EFD100BF00E0BE
:103FA00000BF00BF00BFBDF80C0004A900F0E2FF95
:103FB00006464FF6FF7085420FD0BDF80C0029462B
:103FC00000F088F8BDF80C00ADF8060001208DF86F
:103FD000040001A8FEF7F0FC00BF00BF9EE7000050
:103FE000024600210DE001EB4100084B33F82000B0
:103FF000904205D101EB410003EB800040887047FF
:10400000491C0829EFD34FF6FF70F8E7F825002088
:1040100010B500F0EFF9FCF787FF06490870084675
:104020000078182801D1032010BD01200249087032
:104030000020F9E7D7210020D62100202DE9F0410A
:1040400004460D46601C00F0F3FA10B90020BDE8EC
:10405000F0811022691C601CFBF719FA08B90120D5
:1040600000E00020074605F1110104F11100FBF703
:10407000C7FD064607B90EB10120E8E70020E6E7D4
:104080000246108808B101207047002105E0901C0D
:10409000405C08B10120F7E7491C0829F7D300204C
:1040A000F2E770B505460C462846FFF7E9FF08B968
:1040B000002070BD28882188884201D00020F8E7C0
:1040C0000822A11CA81CFBF7E2F908B90120F0E7BF
:1040D0000020EEE770B504460D462946204602F062
:1040E000B7FD70BD30B587B00446207810B920798F
:1040F000072801D007B030BD608804AA072102F06C
:1041000079F9054605B1F5E702F090FB1EE06088FD
:10411000BDF81810884200D118E003990598FFF700
:104120008DFF90B16088FFF75BFFADF802000020C3
:104130008DF800006088ADF80400BDF81810ADF8E7
:1041400006106846FEF738FC07E000BF02AA06A981
:10415000072002F03DFB0028D9D100BF00BFC9E70E
:1041600070B506463046FFF73BFF0446304602F086
:104170004CF905464FF6FF70844204D01DB9014644
:10418000204602F065FD284670BD000070B505466A
:104190002846FFF791FB0446FF2C05D004EB4400B2
:1041A000034931F8200070BD4FF6FF70FBE70000B7
:1041B000F82500203EB5044602F038FB10E00198D7
:1041C00000F146012046FFF76CFF30B9019800F17D
:1041D0002A012046FFF765FF10B1BDF808003EBD7B
:1041E0006A4602A9072002F0F3FA0028E7D14FF649
:1041F000FF70F4E72DE9F04106460C460F272EB17B
:104200000120FEF7AFFE0120BDE8F081207930B13A
:1042100001280AD0022833D0032864D13EE001F0FF
:10422000B9FE0746012020715EE04FF0000800252E
:1042300016E0324800EB0510007802280ED12F4915
:1042400001EB0511486801F095FE074600202B4957
:1042500001EB051108704FF0010803E0681C85B2FE
:10426000022DE6DB00BFB8F1000F08D10220FEF7F7
:104270009FFE0120FEF776FE41F61D50C4E733E0B5
:104280001F480023012201681E48FEF70DFF074664
:1042900002201B4988800020207125E01849086809
:1042A00001F068FE0746184845881548D0F8008098
:1042B000124800EB05104068114908600F4800EBF8
:1042C0000510C0F80480084680880C4901EB0511F0
:1042D000088102200A4988800020084901EB051165
:1042E0000870207100E000BF00BF27B10120FEF779
:1042F00039FE0E2088E7002086E70000DC2B002036
:10430000AC220020DC220020FC2B0020F8B529483C
:10431000007800B9F8BD00252748006808B90120D9
:1043200000E00020064600BFEDB92448007800B147
:10433000F0E7684648DF0446052C01D1012511E06D
:1043400034B100BF1E4A89212046FBF7B9FE09E0BF
:10435000009800F06BFF1B48006818B119490098DD
:104360000968884700BFEEB91448007800B1D1E76A
:1043700015480088009069461448006861DF0446CB
:10438000052C01D101260CE034B100BF0C4AAE214E
:104390002046FBF795FE04E00C48006806490968D2
:1043A000884700BF0DB106B100E0BDE700BF00BF08
:1043B000B0E70000C4220020D0220020C522002047
:1043C00044A40200D4220020CC220020C8220020D5
:1043D0000020014908707047C421002000200349D3
:1043E00008704FF6FF70024908807047D021002006
:1043F000D2210020182008490870002008E04FF65C
:10440000FF7100EB4002054B03EB82025180401C20
:104410000828F4D370470000D7210020F825002099
:1044200010B5002407E004EB8401044A02EB81008C
:1044300005F001FE641C082CF5D310BD7826002081
:1044400010B5044640212046FBF70FF810BD0000D0
:104450004FF6FF70054908800020054908601820C4
:1044600004490870044908707047000000220020C9
:10447000F821002003220020042200207FB50646F8
:104480000C464FF49271304601F08CF9E8B14FF4CC
:104490009271304601F08DF94FF48271304601F08F
:1044A00081F990B9A168304601F08AF90220A06034
:1044B000A168304601F087F92021304601F094F9D7
:1044C0001421304601F090F97FBD4FF482713046DF
:1044D00001F068F9002844D04FF48271304601F0B1
:1044E00068F9D4E90412E06801AB07C394F823002B
:1044F000D8B1207B012804D1304601F06DF9C0B25B
:1045000003E0304601F079F9C0B28DF80600207B57
:10451000022804D1304601F05FF9C0B203E0304612
:1045200001F06BF9C0B28DF807004FF4B07130465E
:1045300001F03FF94FF4AE71304601F03AF994F8CA
:10454000250018B194F8230000283ED00021304601
:1045500001F047F90020A060411E304601F030F91B
:1045600033E04FF4A471304601F023F9207B90B979
:10457000D4E90412E06801AB07C394F8250020BB1E
:104580000021304601F02DF90020A060411E304688
:1045900001F016F919E04FF40071304601F021F9ED
:1045A00040F20220A0604FF0FF31304601F008F9E0
:1045B000A168304601F007F90821304601F014F9EE
:1045C0002021304601F010F97EE7304601F0E4F892
:1045D000054605F0020018B101208DF8000009E041
:1045E00005F0040018B102208DF8000002E0002060
:1045F0008DF8000094F8250010B9002084F82400FC
:104600006846D4E90021904700BF5DE7014648882D
:10461000064A1288904206DB4888044A5288904233
:1046200001DC012070470020FCE70000A8210020E9
:104630000246002104E0505C08B101207047491C8B
:104640001029F8D30020F9E7014601F0030008B96A
:10465000012070470020FCE70146086808B10268A5
:104660000A60704710B504460448007800F0010065
:1046700018B103480078FDF793F910BD70210020B0
:10468000682100202DE9F04107460D4690461E4660
:104690002DB92948007810B90520BDE8F08135B161
:1046A00042460021384604F0B7FB044605E0424686
:1046B0002249384604F0B0FB044600222146384621
:1046C000FEF79AFC1EB121463846FEF733F9112C4D
:1046D0000DD005DC34B3082C27D00D2C26D122E0D8
:1046E000862C12D0A4F540500238F8B91CE02A46B6
:1046F000134801783846FCF749FC424611480178D6
:104700003846FCF743FC002412E02A460C480178A6
:104710003846FCF73BFC42460A4801783846FCF72D
:1047200035FC05E000BF00BF00BF01E0032400BF6F
:1047300000BF2046B1E70000122200200D22002019
:104740001B2200201A2200202DE9FC4107460E46BC
:10475000904626B9002138467EDFBDE8FC813078DE
:1047600000F0010008B1012000E00220019038466D
:10477000FFF70CFD05464FF6FF70854209D001A8F2
:104780002B46424631460090384600F024F8044655
:1047900019E0307800F0010028B13146384600F0C9
:1047A0008EF804460FE0314638467EDF044600208E
:1047B00000900CB9012000E00020024601232946A8
:1047C000384603F00DFE24B99DF80410384603F076
:1047D0004FFE2046C1E72DE9FF4F85B00F469046BA
:1047E0001E46DDF848900025AA4603AA0721304658
:1047F00001F000FE04466CB9049800F11805049815
:1048000090F8440000F0010ABAF1000F02D00498B9
:1048100000F13405B8F1000F13D194B98DB1BAF19C
:10482000000F04D105F11200FFF72AFC48B12A4617
:1048300005F11201059885DF0446002089F8000083
:1048400027E00CB1052C24D10024387800F00100B9
:1048500060B101AB01220721304601F00DFE044694
:1048600024B90721304601F03FFF04461CB9394600
:1048700005987EDF044664B10721304601F096FEBC
:104880008346BBF1000F03D0BBF1050F00D003241A
:1048900000BF0020009099F8000008B1012000E05E
:1048A000002003460CB9012000E0002002463146FA
:1048B000059803F095FD204609B0BDE8F08F2DE97D
:1048C000FE430746884601F091FD05464FF6FF700E
:1048D00085421CD001AB01220721284601F0CCFD06
:1048E000044624B90721284601F0FEFE04461CB9FF
:1048F000414638467EDF044654B10721284601F080
:1049000055FE064616B1052E00D0032400E0032410
:104910004FF6FF70854201D0012000E0002000909A
:104920000CB9012000E00020024601232946384648
:1049300003F056FD2046BDE8FE8300002DE9F0415E
:1049400007460C461546114801783846FCF70CFB23
:10495000D0B13846FFF71AFC06464FF6FF70864284
:1049600011D00B4801783846FCF7FEFA30B12B46DF
:1049700022463146384601F0B7FB04E02A4621467C
:104980003846FDF76FFE00BFBDE8F081062200202B
:10499000072200202DE9F04786B005462846FCF79F
:1049A000D5FA8046404603F08DFB58B301A8FCF7CA
:1049B0000DFA002422E002A931F814002946FCF780
:1049C000D3FA0646CEB102A931F814000F4909788E
:1049D000FCF7CAFA814602A931F814000C4909789B
:1049E000FCF7C2FA824602A931F8140001234A46B4
:1049F0005146FFF747FE074600BF641C0198A042DE
:104A0000D9D800BF06B0BDE8F08700001A22002008
:104A10001B22002070B504460D46294620467EDF45
:104A20000646304670BD000070B51C4804781C482E
:104A3000066827E01948406804EB440100EBC10513
:104A4000601CC4B215488078A04200D100242878A8
:104A5000022802D0032812D103E0686804F0F4FCB5
:104A60000EE007E00E490868002101740C4AC16994
:104A7000116000BF0A4800680028F3D100E000BFC1
:104A800000BF00BF05484078A042D3D10448006869
:104A9000B04201D0012070BD0020FCE78022002040
:104AA000882200202DE9F0410546374807685AE082
:104AB00015B12C46E56929E034494968334A127832
:104AC00002EB420201EBC20030490978491C2F4A2F
:104AD0001170114609789278914202D100212B4A37
:104AE000117044680178012901D1217C01B13AE0BB
:104AF00081686160C168A1600169E1604169A1618B
:104B00002349097809B10021616000BF214960682B
:104B10000968401A20F07F401F49884208D21D4989
:104B20006068096804F0EAFBA168084420600FE0AF
:104B300018486168006804F0E1FB0646A068B042CE
:104B400003D9A068801B206001E00020206000BF26
:104B500000206060A060012020740020E0612046F9
:104B600004F03EFC00BF002DA2D1084800780749A0
:104B7000497888429CD104480068B84202D001209C
:104B8000BDE8F0810020FBE7882200208022002081
:104B9000A12200208C220020FFFF7F00FEB50446EA
:104BA00000264FF6FF70844200D1FEBD2046FEF77E
:104BB0001FFF054645B10B2D16D0112D12D0A5F5BE
:104BC00040500238F8B91DE002208DF80000204660
:104BD000FFF7DCFAADF80200ADF804406846FDF7D7
:104BE000CBFE1FE001261DE003208DF800002046CB
:104BF000FFF7CCFAADF80200ADF804406846FDF7C7
:104C0000BBFE0FE00EE009208DF800002046FFF704
:104C1000BDFAADF80200ADF8044002956846FDF714
:104C2000ABFE00BF00BF3246034801782046FCF7C8
:104C3000ADF900BFB9E70000C6210020FEB504466B
:104C400000262046FEF71CFF0546112D1AD003DC76
:104C50004DB10C2D34D117E0862D23D0A5F5405051
:104C6000023868BB0DE001208DF80000ADF804406B
:104C70002046FFF78BFAADF802006846FDF77CFE90
:104C80002DE02CE001262AE007208DF80000ADF889
:104C900004402046FFF77AFAADF802006846FDF7B7
:104CA0006BFE1CE008208DF80000ADF804402046A3
:104CB000FFF76CFAADF802006846FDF75DFE0EE006
:104CC00009208DF800002046FFF760FAADF80200D9
:104CD000ADF8044002956846FDF74EFE00BF00BFE8
:104CE0003246034801782046FCF750F9FEBD00002B
:104CF000C5210020F8B504460D460026207828403E
:104D000080B9002000906846FBF7D4FA207828404C
:104D100018B920782843207001269DF80000FBF781
:104D2000CFFA00BF3046F8BD08B504F065FC684610
:104D3000FCF7E4FFFCF780FB9DF8000001F0C2FFE8
:104D4000FEF7F2FAFBF7BAF803F048FD03F0E0FBD8
:104D5000FDF778FAFDF7B2FBFBF700FBFDF726FC49
:104D60000320FBF799FE044600BF25463DB100BF76
:104D700005A240F222412846FBF7A2F900BF00BF7E
:104D800000BF02F075FDFCE72E2E5C2E2E5C2E2E51
:104D90005C6D61696E2E63002DE9F04105460E469B
:104DA00014469846A888871C2088801C38444045B3
