:020000040001F9
:10F0000068700020E1F40100E9F40100EBF4010074
:10F01000EDF40100EFF40100F1F401000000000044
:10F02000000000000000000000000000F3F40100F8
:10F03000F5F4010000000000F7F40100F9F401000C
:10F04000C5FA0100FBF40100FBF4010049FD0100D9
:10F05000FBF40100FBF40100B1F7010049FB0100E2
:10F06000FBF40100FBF40100FBF40100FBF40100E0
:10F07000FBF40100FBF40100FBF40100FBF40100D0
:10F08000FBF4010015FB0100FBF40100FBF401009F
:10F090005DFD0100FBF4010065FD0100FBF40100D2
:10F0A000FBF40100FBF40100FBF40100FBF40100A0
:10F0B000FBF40100FBF40100000000000000000070
:10F0C000FBF40100FBF40100FBF40100FBF4010080
:10F0D000FBF40100FBF40100FBF401000000000060
:10F0E0000000000000000000000000000000000020
:10F0F0000000000000000000000000000000000010
:10F1000000000000000000000000000000000000FF
:10F1100000000000000000000000000000000000EF
:10F4000000F002F800F05CF80AA090E8000C8244DA
:10F410008344AAF10107DA4501D100F051F8AFF2B7
:10F42000090EBAE80F0013F0010F18BFFB1A43F0E2
:10F430000103184728C4000048C400000A444FF0E4
:10F44000000C10F8013B13F0070408BF10F8014B43
:10F450001D1108BF10F8015B641E05D010F8016B88
:10F46000641E01F8016BF9D113F0080F1EBF10F8EC
:10F47000014BAD1C0C1B09D16D1E58BF01F801CB0F
:10F48000FAD505E014F8016B01F8016B6D1EF9D592
:10F490009142D6D3704700000023002400250026A7
:10F4A000103A28BF78C1FBD8520728BF30C148BFE7
:10F4B0000B6070471FB50CF051F81FBD10B510BDA3
:10F4C00000F03CF91146FFF7F5FF06F0F5F800F003
:10F4D0005AF903B4FFF7F2FF03BC00F061F9000032
:10F4E0000948804709480047FEE7FEE7FEE7FEE7D8
:10F4F000FEE7FEE7FEE7FEE7FEE7FEE70448054914
:10F50000054A064B70470000ADFD010001F4010003
:10F51000683000206870002068500020685000208B
:10F5200040EA010310B59B070FD1042A0DD310C880
:10F5300008C9121F9C42F8D020BA19BA884201D9D2
:10F54000012010BD4FF0FF3010BD1AB1D30703D01A
:10F55000521C07E0002010BD10F8013B11F8014BD0
:10F560001B1B07D110F8013B11F8014B1B1B01D1EC
:10F57000921EF1D1184610BD10B5431C02E010F8E0
:10F58000011B71B18107FAD14FF0013202C88C1A08
:10F590008C4314EAC211F9D0C01A0A0603D0C01E67
:10F5A00010BDC01A10BD0A0401D0801E10BD090292
:10F5B000FCD0401E10BD032A40F2308010F0030C36
:10F5C00000F0158011F8013BBCF1020F624498BFB6
:10F5D00011F801CB00F8013B38BF11F8013BA2F153
:10F5E000040298BF00F801CB38BF00F8013B11F0CE
:10F5F000030300F02580083AC0F0088051F8043B6E
:10F60000083A51F804CBA0E80810F5E7121D5CBFDA
:10F6100051F8043B40F8043BAFF30080D20724BF0D
:10F6200011F8013B11F801CB48BF11F8012B24BFA1
:10F6300000F8013B00F801CB48BF00F8012B7047F0
:10F6400010B5203AC0F00B80B1E81850203AA0E87D
:10F650001850B1E81850A0E81850BFF4F5AF5FEAB1
:10F66000027C24BFB1E81850A0E8185044BF18C964
:10F6700018C0BDE810405FEA827C24BF51F8043B0B
:10F6800040F8043B08BF7047D20728BF31F8023B5F
:10F6900048BF11F8012B28BF20F8023B48BF00F8F3
:10F6A000012B70474FF000020429C0F0128010F0C7
:10F6B000030C00F01B80CCF1040CBCF1020F18BF4E
:10F6C00000F8012BA8BF20F8022BA1EB0C0100F0E1
:10F6D0000DB85FEAC17C24BF00F8012B00F8012BB4
:10F6E00048BF00F8012B70474FF0000200B51346E9
:10F6F00094469646203922BFA0E80C50A0E80C5052
:10F70000B1F12001BFF4F7AF090728BFA0E80C5002
:10F7100048BF0CC05DF804EB890028BF40F8042BFB
:10F7200008BF704748BF20F8022B11F0804F18BF68
:10F7300000F8012B7047704770477047754600F01E
:10F740002BF8AE4605006946534620F00700854673
:10F7500018B020B5FFF7D2FEBDE820404FF00006FC
:10F760004FF000074FF000084FF0000B21F00701A9
:10F77000AC46ACE8C009ACE8C009ACE8C009ACE8EC
:10F78000C0098D46704710B50446AFF3008020468F
:10F79000BDE81040FFF79DBE0048704708300020CC
:10F7A00001491820ABBEFEE72600020070470000AA
:10F7B0002DE9F04F89B04FF00008002008904FF479
:10F7C000807007900126002413E0079807F09AF84C
:10F7D00048B100BF81480068304020B1079807F069
:10F7E00083F848EA060876000798001D80B2079063
:10F7F000641C082CE9D34FF4BE7007F083F850B1B5
:10F800004FF4BE7007F070F848F0004808AA0121D4
:10F81000002007F04FF808F0FF0000B30126002495
:10F820001BE006EA0800B0B100BF6D4850F82400A4
:10F83000C0F30420074600BF694850F82400C0F315
:10F8400001408146204602F0B7FE054615B1494603
:10F850003846A84700BF7600641C082CE1D308F0A6
:10F86000004000287ED0002006900590002505E08D
:10F870004FF0FF3004A941F825006D1C002DF7D092
:10F8800000BF0020069000246FE05648005D039002
:10F89000039820F0C00753480057401C002863D04D
:10F8A00004A9384606F0CEF800285DD003984FEA48
:10F8B000901A384602F0C8FE814602F07DFE0290A2
:10F8C000029810B9BAF1030F4BD1BAF1030F11D15D
:10F8D000394605A80246CB0801F0070112F803C01B
:10F8E0004FF0010E0EFA01FE4CEA0E0C02F803C0B6
:10F8F00000BF00BF00BF00BF4FF0A041084600F5A9
:10F90000E06151F82710C1F3014900BF08A938464A
:10F9100006F098F88346BBF1000F02D0B9F1020F50
:10F9200005D0BBF1000F1BD1B9F1030F18D1BAF10B
:10F93000030F0FD1B9F1020F01D1032000E0022023
:10F9400001903846019906F035FF0698401CC0B278
:10F95000069000BF029818B151463846029A904767
:10F9600000BF00E036E000BF641C042C8DD3069875
:10F9700058B3012703AA0121002006F09BFF0025B0
:10F980000AE003A850F8250008A951F8251088427C
:10F9900001D0002702E06D1C002DF2D000BF17B18E
:10F9A0000020069010E000250CE003A850F8250088
:10F9B00008A941F8250005A850F8250004A941F838
:10F9C00025006D1C002DF0D000BF069800287FF4A4
:10F9D00058AF00BF09B0BDE8F08F000004630040DD
:10F9E00010650040302E002000F01F0201219140E0
:10F9F000024A430942F823107047000080E200E009
:10FA000000F01F0201219140024A430942F82310ED
:10FA10007047000080E100E000F01F0201219140EA
:10FA20004209920002F1E022C2F80011704700F092
:10FA30001F02012191404209920002F1E022C2F826
:10FA40000011704700F01F0201219140024A430952
:10FA500042F823107047000000E200E010B50028D3
:10FA600007DA4A07140E054A00F00F031B1FD4548F
:10FA700003E04A07130E024A135410BD18ED00E0CC
:10FA800000E400E000BF00BF00BFBFF34F8F00BF26
:10FA900000BF00BF0948006800F4E060084908435F
:10FAA000001D0649086000BF00BF00BFBFF34F8FB5
:10FAB00000BF00BF00BF00BF00BFFDE70CED00E0CE
:10FAC0000000FA0510B54FF4807005F0C6FF60B174
:10FAD0004FF4807005F0CAFF012005F0D1FF01202E
:10FAE0000B494870002002F0DBFE4FF4827005F0F5
:10FAF000B4FF58B14FF4827005F0B8FF022005F052
:10FB0000BFFF01200249887002F0CAFE10BD00004C
:10FB1000CC2D002010B500200949086000210948BB
:10FB2000C0F84411C0F84811C0F84C110020054934
:10FB3000C1F8000102493C3908600AF085FF10BD98
:10FB40004011014000100140FEB54FF4827006F0F4
:10FB500037FF002835D04FF4827006F03BFF79481C
:10FB600090F82B0018B1774890F82C0048B300208B
:10FB70008DF8000073484068019072480189ADF823
:10FB80000810C06820B900206E4981F829000FE0F4
:10FB90006C48C0686B4948600846808A088100202C
:10FBA000C860084690F82B0010B9002006F034FF1A
:10FBB00064480168684688470020624981F82C0043
:10FBC00000BF604890F82B0000286CD04FF4807084
:10FBD00006F0F6FE002866D04FF4807006F0FAFEBC
:10FBE0005848C08AB0B957480089564991F82A1038
:10FBF000401A5449C8820A4612890B46DB8AD21A37
:10FC00000B465B6803EB42000A4692F82A1006F0A6
:10FC10008BFE41E04B48C08A4A4991F82A1088423D
:10FC200016DD4848C08A474991F82A10401A4549CC
:10FC3000C8820A4612890B46DB8AD21A0B465B68D9
:10FC400003EB42000A4692F82A1006F06DFE23E00C
:10FC50003C48C08A3B4991F82A1088420FD1394864
:10FC6000C06860B10120374981F82C000020C882AB
:10FC70000A4692F82A10D06806F056FE0CE0314889
:10FC8000C08A304991F82A10884205D101202D49B7
:10FC900081F82C000020C8824FF4827006F09AFE92
:10FCA000042006F0B9FE4FF4887006F089FE78B1A2
:10FCB0004FF4887006F08EFE0020224981F829005A
:10FCC00002208DF80000084601686846884700BF9A
:10FCD0004FF48A7006F074FE40B14FF48A7006F05B
:10FCE00079FE0020174981F829002AE015480569A6
:10FCF00024E0B5FA85F64FF00040F0408543B000AF
:10FD000000F58C74204606F05BFEB8B1204606F084
:10FD100061FE01208DF80000A4F58C70C0F3C700CF
:10FD20008DF80400A4F58C70012121EA90018DF872
:10FD30000510044801686846884700BF002DD8D1E7
:10FD400000BFFEBD742D002010B50249024805F029
:10FD50005DF810BDA42D00200030004010B50AF061
:10FD600089FD10BD70B50B48006880B10948006876
:10FD70008047044600BF25463DB100BF064A40F219
:10FD80008F11284600F0C0FB00BF00BF01E004F067
:10FD900085FF70BD3023002004B8020001480249ED
:10FDA000086070470090D0034823002010B503F08E
:10FDB00033F910B186488749486703F045F928B1FF
:10FDC00085480068C0F342308449086003F066F952
:10FDD00028B18348006820F080708149086003F0F2
:10FDE00075F948B100207F4908604FF08041C1F8A3
:10FDF00010017A49091F086003F092F918B1032035
:10FE000076496431086003F0A3F968B105207649AA
:10FE10000860012074497831086000207249083177
:10FE200008603F20091F086003F0AAF9002855D098
:10FE30006E4800686E4908606C48001D0068091D26
:10FE400008606A4808300068091D086067480C307F
:10FE50000068091D0860654810300068091D0860C9
:10FE6000624814300068091D086060481830006856
:10FE70005F49203108605D481C300068091D08603A
:10FE80005A4820300068091D08605848243000682E
:10FE9000091D0860554828300068091D086053484E
:10FEA0002C300068091D0860504830300068504907
:10FEB000403108604D4834300068091D08604B48E7
:10FEC00038300068091D086048483C300068091D4A
:10FED0000860464840300068091D086003F072F869
:10FEE00030B13D481430006800F04F0041490860CF
:10FEF0003B487438006840F4700039497439086030
:10FF000000BF00BF00BFBFF34F8F00BF00BF00BFE7
:10FF100000BF00BF00BFBFF36F8F00BF00BF00BFB7
:10FF20003548006800F00100F0B101203349086055
:10FF300000BF334800680028FBD02F48006820F03D
:10FF400001004FF01021C1F80C0200BF2C480068DE
:10FF50000028FBD000202949086000BF284800681D
:10FF60000028FBD0FFF78EFD23480C38006800F016
:10FF7000004028B920480838006800F0004018B355
:10FF800001201E49086000BF1D4800680028FBD002
:10FF9000152019490C39086000BF1948006800286D
:10FFA000FBD0152114480838016000BF14480068D0
:10FFB0000028FBD000201149086000BF10480068ED
:10FFC0000028FBD0FFF75EFDFFF7E8FE10BD000044
:10FFD0000DF0ADBA00C00740440200103C050040DF
:10FFE000FCED00E00C01004010560040040400103D
:10FFF00020C50040E40E00400C12001004E5014052
:020000040002F8
:1000000000E401400146202908DA012088400A4A1C
:10001000104008B1012070470020FCE7402909DAB0
:10002000A1F12000012202FA00F008B10120F2E75C
:100030000020F0E70120EEE7FC06FFBC00BFEFF375
:100040001081084672B6704770B505460C4605B17A
:100050000CB9002070BD287840082178B0EB510F12
:1000600001D00020F6E70622611C681CFFF758FA51
:1000700008B90120EEE70020ECE70246002104E089
:10008000505C08B101207047491C0629F8D30020B4
:10009000F9E7000010B504466CB108480068A042BA
:1000A00009D806484068A04205D3204604F094FFD2
:1000B00008B1012010BD0020FCE700005C230020F7
:1000C0002DE9FC4104468846164600253788002065
:1000D000308094F82D0058B13A463146404601F040
:1000E00000FB054600BF15B12846BDE8FC8100BFF6
:1000F000A07850B13A463146404600F063FB0546D1
:1001000000BF0DB12846F0E700BFE07860B1E178AC
:1001100048B23B463246414603F0E0FB054600BF8D
:100120000DB12846E1E700BF606868B1616891F9E8
:1001300000003B46324641460AF0CCFE054600BF71
:100140000DB12846D1E700BF208900280EDD4346C7
:100150000622022104F10800CDE900670AF098FFA9
:10016000054600BF0DB12846BFE700BF208A002822
:100170000EDD43460722032104F11000CDE900679C
:100180000AF086FF054600BF0DB12846ADE700BF67
:10019000208B00280EDD43461522142104F118009F
:1001A000CDE900670AF074FF054600BF0DB128468F
:1001B0009BE700BF206A58B13B4632464146206A61
:1001C00002F0FBFB054600BF0DB128468DE700BFDE
:1001D000606A58B13B4632464146606A05F0FAFA19
:1001E000054600BF0DB128467FE700BF94F82C00FC
:1001F00000280BDD3B4632464146204609F0FAFC1A
:10020000054600BF0DB128466FE700BF207858B102
:100210003B4632464146204605F054FB054600BFAA
:100220000DB1284661E700BF28465EE770B5044679
:100230001448FFF722FF0546012C06D0022C0BD0F4
:10024000032C10D0042C1AD113E00F48407810B1C1
:100250000DB1012070BD00BF0B48807810B10DB109
:100260000220F7E700BF0848C07808B10320F1E793
:1002700000BF0548007908B10420EBE700BF00206B
:10028000E8E70000ED210020242800200146481C5A
:10029000052290FBF2F302FB1300C0B27047014647
:1002A000C87800F0040008B9072070470020FCE778
:1002B00010B501220221002001F0DEFE044600BF3D
:1002C0001CB1072C01D0204610BD00BF072202211F
:1002D000012001F0D1FE044600BF1CB1072C01D063
:1002E0002046F1E700BF0A220021084601F0C4FEC3
:1002F000044600BF1CB1072C01D02046E4E700BF34
:100300000020E1E730B599B03C210AA8FFF7ECF9ED
:1003100002208DF8280001208DF82A0006208DF893
:100320002B000320ADF8380011490F91202102A8BD
:10033000FFF7DAF901208DF80B00A0200690642069
:10034000079000200B4B02AA014600900AA800F07B
:10035000F9FD044600BF25463DB100BF06A240F2AC
:100360004F41284600F0D0F800BF00BF19B030BDA3
:1003700050210020916A02002E2E5C2E2E5C2E2E23
:100380005C6D61696E2E630070B5032000F000FFA4
:10039000044600BF25463DB100BF04A24FF48F6163
:1003A000284600F0B1F800BF00BF70BD2E2E5C2EB5
:1003B0002E5C2E2E5C6D61696E2E630070B58CB064
:1003C00004460D461646002005E0C0F10F01615CB1
:1003D0000DF80010401C1028F7D30D2104A8FFF7DA
:1003E00083F9002005E02A5CC0F10F0304A9CA5478
:1003F000401C0328F7D3684643DF002005E0C0F126
:100400000F0208A9895C3154401C0328F7D30CB0B3
:1004100070BD10B50446022001F0A4FC10BD000020
:1004200010B5002407E00749096811F834000121DC
:1004300005F0DEFD641C044800788442F3D30020FC
:1004400010BD0000CC220020D02200202DE9F8436E
:1004500006460C461746052F02D20720BDE8F88352
:1004600005F0C4FE38B905F091FE054600BF0DB198
:100470002846F3E700BF1648066016480470164881
:1004800007600020154908601549086015E006EB73
:10049000C40814480068009098F802008DF8010024
:1004A00098F80000104A694605F0F8FD054600BFBF
:1004B0000DB12846D2E700BF00BF201EA4F1010104
:1004C000CCB2E4D1094A0021094800F0ABF8C5E7F5
:1004D000CC220020D0220020D4220020D8220020CC
:1004E000DC220020A0B70200B14202009D2C0200D5
:1004F0009CB7020070B504460D46164632462946A2
:10050000204600F011F870BDFEB504460E461546B3
:10051000B0B2ADF80000019502946A46002144F2A1
:100520000100FFF7E7FFFEBD18B5012300939DF81A
:1005300000301E4B186059609A606FF4804303448A
:1005400063B1012B19D1194BDA60DB681B88174C9A
:10055000A3612346DB685B68E3610EE0134B1A611D
:100560001B699B68114C636123461B691B88A3614F
:1005700023461B695B68E36100BF00BF0B4B1B6830
:100580000A4B5B68094B9B68084BDB68074B1B6990
:10059000064B5B69054B9B69044BDB6972B600BF78
:1005A0009DF80030002BFBD162B618BD582E0020FC
:1005B0002DE9F0411AE016480478164800681649FB
:1005C000098804FB01051548006800EBC400868813
:1005D0001248006850F8347031462846B8470C4835
:1005E000007805F023FA0A49087000BF00BF002018
:1005F00058B900BF0649087809490978814201D1F4
:10060000012100E000210029D5D0BDE8F0810000E3
:1006100028230020242300202A2300202023002038
:100620002923002010B503460C4600BF0B48406844
:1006300008B9082010BD00BF0AB90720FAE70BB9B6
:100640000720F7E71868007C08B10820F2E719686E
:10065000002008744C744A6100BFEBE7E0220020E0
:100660002DE9F04107460D4614461E46204600F08F
:10067000030109B9012100E0002111B90720BDE8FB
:10068000F0810CB90720FAE708F056FE1148066021
:1006900000201149087048700846857044600020A9
:1006A0000E4908600E4908700E4908701420FFF7C3
:1006B0009BF907211420FFF7D1F91420FFF7ACF9BB
:1006C000384608F00FFE08F007FE074908600020D2
:1006D000D5E70000FC220020E0220020E8220020D4
:1006E000F8220020F9220020EC2200202DE9F04120
:1006F00004460E461746254600BF1048406810B90C
:100700000820BDE8F08100BF0CB90820F9E7052EEC
:1007100001D20720F5E7686908B90820F1E7687C8D
:10072000012801D1304600E0002080463B46424689
:10073000314628460AF038F9E3E70000E0220020BD
:1007400070B50446254600BF0848406808B908202F
:1007500070BD00BF0CB1686908B90820F8E7002037
:100760002874022128460AF04EF9F1E7E022002021
:1007700010B50446204608F0F3FE10BD70B50446DF
:1007800025460E488068B0B1ADB9FFF757FC064664
:100790000A4800680A490860084840684FF0E021AC
:1007A000C1F804010020054988601EB900BF62B687
:1007B00000BF00BF00BF00BF70BD0000782E00204A
:1007C00000E100E0F8B505460C4617462088001DFC
:1007D000B84201D90C20F8BD684679DF064600BF53
:1007E0000EB13046F7E700BF032021886854208807
:1007F000401C20801920218868542088401C2080BB
:1008000020884119BDF800000AF085FB21880844C2
:1008100020800020DFE7000070B500224FF4203177
:1008200008480068FFF762FF044600BF25463DB157
:1008300000BF05A240F2B3212846FFF765FE00BFC6
:1008400000BF70BD68B502002E2E5C2E2E5C2E2ED1
:100850005C6D61696E2E630030B58BB01348007813
:1008600000F0F0FE0546284608F0AEFED8B101A81B
:1008700000F028FE142201A906A8FEF7E1FE0024DC
:100880000DE007A931F814000849097800F0E8FEE6
:1008900020B107A931F8140004F048FE641C069842
:1008A000A042EED800BF0BB030BD000026220020D1
:1008B00010B50446637903F003022179208804F01F
:1008C00005FD10BD10B50446207918B9204600F08A
:1008D00007F803E02046FFF7EBFF00BF00BF10BDA5
:1008E0002DE9F04188B004460025208800F07CFE08
:1008F0000746208804F012F90646A0680790607A3F
:100900000690208800222349097800F0BBFE17B921
:1009100008B0BDE8F0816079C0F3800090B1072194
:10092000304607F049F80546BDB108208DF80000B3
:100930002088ADF80200ADF804600295684602F028
:10094000EDFC0AE020881449097800F089FE20B106
:10095000304604F0CDF8804600BF03208DF80C002F
:100960002088ADF80E006079C0F380008DF810008B
:10097000A079C0F380018DF811109DF81C108DF83E
:1009800012109DF818108DF8131003A802F0C6FC81
:1009900000BFBDE766220020682200202DE9F0415B
:1009A000044600260027207838BB0421606805F043
:1009B00031FC054600BF00BF04E0606830F9170055
:1009C00006447F1C042FF8D3B60806EBC60080004F
:1009D00000EB8000C0F315200949086001210320C5
:1009E00005F02EFF05F07AFD072001218140054A20
:1009F000430942F8231000BF00BFBDE8F0810000AA
:100A0000B421002080E200E02D480068B0F5A57F09
:100A100003D80A202A4908604FE029480068B0F549
:100A2000AF7F03D814202649086046E024480068B8
:100A3000B0F5B97F03D81E20214908603DE0204869
:100A40000068B0F5BC7F03D228201D49086034E05F
:100A50001B480068B0F5BE7F03D8322018490860F3
:100A60002BE017480068B0F5C17F03D23C20144941
:100A7000086022E012480068B0F5C37F03D8462022
:100A80000F49086019E00E480068B0F5C67F03D230
:100A900050200B49086010E009480068B0F5C87F95
:100AA00003D85A200649086007E005480068B0F5F9
:100AB000CB7F02D364200249086001480078704768
:100AC000B42100202DE9FE432649002005F060FCFA
:100AD00004462549D1E900208968CDE9002002912A
:100AE0006946002005F0F8FB044600BF254635B1F5
:100AF00000BF1EA27D212846FFF706FD00BF00BFF4
:100B000004211F4805F086FB044600BF254635B189
:100B100000BF16A280212846FFF7F6FC00BF00BFE9
:100B200000BF0120174A106000BF032001210A46C0
:100B300000231D461E4600BF4FF0A04C674641EA09
:100B4000420C4CEA830C4CEA052C4CEA064807F5AB
:100B5000E06C4CF8208000BF00BF002105F070FE63
:100B6000BDE8FE839D09020088B502002E2E5C2E92
:100B70002E5C2E2E5C626174746572792E630000A7
:100B8000A821002000700040F0B591B004460D4649
:100B9000207DD8B10020099000BF9DF8240020F0EE
:100BA0000F00401C8DF824009DF8240020F0F00078
:100BB00010308DF8240000BF687B8DF825009DF86B
:100BC000260020F00600801C8DF826001C210AA8B3
:100BD000FEF78AFD9DF8280020F00200801C8DF8A9
:100BE0002800207D08B1012000E000209DF8281099
:100BF00060F304118DF8281000200B900D900E90DA
:100C0000207D08B109A800E000200F90002010907E
:100C100000BF01208DF80E0042F61920ADF80C003F
:100C200000BF00200290A87B8DF80800E87B8DF8BB
:100C300009009DF80A0020F00600801C8DF80A00CB
:100C40009DF80A0020F008008DF80A009DF80A00BF
:100C500020F010008DF80A009DF80A0020F0010035
:100C60008DF80A00287B0190142104A8FEF73CFDB2
:100C700003A8049002A805900120ADF818000020F8
:100C8000ADF81A000120ADF81C0001A80890A0885A
:100C9000A31D04AA0AA9A2DF064616B1304611B068
:100CA000F0BDA868002855D000BF01208DF80E00C7
:100CB00042F60810ADF80C0000BF00200290287C1E
:100CC0008DF8080000BF9DF8090020F00F008DF896
:100CD00009009DF8090020F0F0008DF8090000BF20
:100CE0009DF80A0020F00600801C8DF80A009DF88F
:100CF0000A0020F008008DF80A009DF80A0020F094
:100D000010008DF80A009DF80A0020F001008DF80F
:100D10000A006846A96800F05DFF0746142104A890
:100D2000FEF7E2FC03A8049002A80590ADF8187045
:100D30000020ADF81A00BDF81800ADF81C00CDF881
:100D400020D0E08804F10E0204A9A3DF06461EB1FC
:100D50003046A4E70020E0810020A0E710B504465B
:100D6000052000BF0207114600BFD1F81025C24080
:100D700002F0010226480260006850B92548007858
:100D8000172811D0172001F0A5F917202149087064
:100D90000AE020480078172806D11F48007801F0A3
:100DA00099F900201B4908701C48007890B100F0A8
:100DB0003BF800F061F81A480068022803D10320CC
:100DC0001749086022E016480068F8B90120144964
:100DD00008601BE012480068012803D10020104978
:100DE000086013E00E48006802280FD10D48006823
:100DF000FFF7A6FC062005F0F6FC02F031F8002211
:100E00004FF4203107480068FFF770FC10BD000068
:100E10006821002060210020612100205C21002049
:100E20006421002068B5020070B5FFF7EDFD0546AE
:100E300029460C4800F060FA04468CB1082C0FD00B
:100E400043F2040084420BD043F20140844207D0B5
:100E500000BF05A240F251112046FFF755FB00BF2D
:100E600070BD00006C2300202E2E5C2E2E5C2E2EDA
:100E70005C6D61696E2E630070B500BFFFF722FEE6
:100E800032254FF47A7115FB01F004F0FFFD00BF2D
:100E9000002408E0322004F0F9FD00BF01200349DE
:100EA000086000BF641C042CF4DB70BD04700040BB
:100EB0002DE9F04192B080460D461F201190109010
:100EC000B8F1000F17D04046FFF7E9F9044600BF1C
:100ED0001CB1204612B0BDE8F08100BF11AA08A9DC
:100EE0004046FFF7EDF8044600BF0CB12046F1E79D
:100EF00000BF08AE02E0002600201190ADB12846E8
:100F000009F0B0FB044600BF0CB12046E2E700BF89
:100F100010AA69462846FFF7D3F8044600BF0CB173
:100F20002046D7E700BF6F4602E000270020109060
:100F3000BDF84000C3B2BDF84400C1B23A463046E5
:100F400072DFC7E72DE9F04704460F4615461E46F7
:100F5000DDF8208004B115B90E20BDE8F08701202E
:100F6000484908700020484908702022294647480F
:100F7000FEF766FB464806604648C0F800804FF61C
:100F8000FF704549088045480021016081808171DA
:100F90003C214348FEF7A8FB207841490870A0781F
:100FA0008870E078C87060784870D4E90402C1E9BC
:100FB00004020846D4E90212C0E90212D4E906127A
:100FC000C0E90612606AD8B13648354948623649E8
:100FD0008160606A00883249496A0880606A808856
:100FE0002F49496A8880002005E0616A8968095CA8
:100FF0002D4A1154401C2A49496A89888142F4D8F3
:10100000A06A20B329492A48816025498862274976
:101010002348806A8160A06A80882149896A888023
:10102000A06A00881E49896A0880002005E0A16A3C
:101030008968095C1D4A1154401C1949896A8988CC
:101040008142F4D894F82C00154981F82C00206ACC
:1010500058B1184812490862206A4088096A4880D5
:10106000206A00880E49096A0880606810B10C493E
:101070006068486039460A48FFF71AFF81464846CB
:101080006BE70000E8210020EB210020242800204D
:10109000FC21002000220020F8210020EC2100206B
:1010A00044280020802800208C280020B828002018
:1010B000AC280020F421002010B504462088102818
:1010C00004D0112806D01B280CD107E0204605F0DB
:1010D00071FE08E0204605F00BFF04E0204605F015
:1010E000B7FF00E000BF00BF10BD000070B50546AF
:1010F000022D02D0032D15D100E000BF0B4800786F
:1011000078B10020094908700948007800F040F8DB
:10111000044634B10748006818B1204605490968FB
:10112000884700E000BF00BF70BD0000E92100203B
:10113000EB2100200022002010B574DF01200F49B0
:10114000087000200E49087006200E49C870002162
:101150000C48FFF7ADFE04460CB1204610BD0A480E
:10116000007800F015F8044634B10848006818B15A
:1011700020460649096888470020EFE7042200203E
:101180000622002044280020EB210020002200201D
:101190007FB505464D48007810B9082004B070BDF1
:1011A0004B48057002F004FC20B101204949087049
:1011B0000020F3E7484800210160818081714748A1
:1011C000407818B14248007801280DD04348807813
:1011D00018B13F480078012806D04048807888B18F
:1011E0003B48007802280DD13D48006838B1012005
:1011F0003C49087008203A490968884702E0002005
:10120000384908702846FFF711F83149087034480A
:101210000068C0B108460078032803D0084600786B
:10122000042810D12D48007868B12F48007850B9B3
:1012300000202E49087001202D49087007202849F8
:101240000968884702E000202949087000200090C2
:101250000190029003908DF800008DF808001C4862
:10126000007805281CD2DFE800F01703080D1200F3
:10127000684608F053FE044613E0684608F05EFE38
:1012800004460EE0684608F06FFE044609E0684632
:1012900008F09AFE044604E000201649087000E0B9
:1012A00000BF00BF0A48007828B1684673DF0446D3
:1012B0000CB1204672E70A48006820B10D4800785A
:1012C000074909688847002068E70000E8210020F6
:1012D000EB210020E9210020EC210020242800201F
:1012E000FC210020F32100200422002006220020FF
:1012F00005220020EA21002033B587B0044614B946
:101300000E2009B030BD0025207C9DF820108842B9
:1013100036D00020059006900120ADF81400002082
:10132000ADF8160008A80690E188608A05AAA4DF37
:1013300005461DB99DF82000207401E02846E0E72D
:10134000608A4FF6FF71884219D0207DB8B1002025
:101350000190029003900490E088ADF80400012011
:101360008DF80600BDF81600ADF8080005A803903A
:1013700006980490608A01A9A6DF054600E00825CA
:101380002846BEE7F8B504460D4604B10DB90E2057
:10139000F8BD286820604FF6FF70608228792075BC
:1013A000FF20207400BF01208DF8020041F60F00DD
:1013B000ADF8000000BF221D69460120A0DF0646EF
:1013C0000EB13046E4E729462046FFF7DDFBDFE7B4
:1013D00070B505460C4605B104B970BD20881028CB
:1013E00004D0112807D050280FD109E02146284603
:1013F00005F0DAFC0AE02146284605F071FD05E01B
:101400002146284605F088FE00E000BF00BF00BF6F
:10141000E3E7000070B505461C2229461248FEF796
:101420000FF9002011490870286850B11048296848
:101430000A680260496841607ADF04463CB1204690
:1014400070BD0B487BDF04460CB12046F8E74FF631
:10145000FF7008490880002007490870074A0021EA
:101460000748FFF7DFF8EBE7D82800201C22002010
:1014700008220020122200201022002089AF020042
:10148000D8B5020010B504462088102806D01128CF
:1014900008D012280ED0502810D107E0204605F0C1
:1014A00067FC0CE0204605F0FBFC08E0204605F058
:1014B0000DFE04E0204605F04BFC00E000BF00BF3D
:1014C00010BD000010B504460348027D011D2046F2
:1014D00008F0F3F810BD00001429002010B50446F0
:1014E0000348C17D2246001D08F0D0F810BD000061
:1014F0001429002010B504460348017E2246001D31
:1015000008F0C4F810BD00001429002070B504468E
:101510002088102804D011281FD01A2842D120E09A
:1015200007F04EFEA08807F0C5FC30B900BF1EA230
:10153000C5210420FEF7E8FF0EE0E07B022801D180
:10154000012000E000200546A2882B462549A1F194
:10155000120008F0D3F800BF24E0A08807F052FE84
:1015600020E0207A0121B1EB101F01DA012000E018
:1015700000200346A2881B49491CA1F1130008F072
:10158000BDF8207A0221B1EB101F01DA012000E042
:1015900000200346A2881349891CA1F1140008F019
:1015A000ADF800BF00BF70BD2E2E5C2E2E5C2E2E1F
:1015B0005C2E2E5C2E2E5C2E2E5C636F6D706F6E1B
:1015C000656E74735C626C655C636F6D6D6F6E5C91
:1015D000626C655F636F6E6E5F73746174652E63BA
:1015E000000000002A29002070B5044600250B48A1
:1015F000017D2246001D08F049F860B10748817D51
:101600002246001D08F042F806460EB1022000E016
:101610000120054600BF284670BD000014290020A7
:1016200010B500240AE0204609F000FD20B920464C
:1016300009F0F2FC204610BD601CC4B2182CF2DB8D
:101640001820F8E710B50446204609F0EFFC10B169
:101650000248005D10BD0020FCE700002D2900209D
:1016600070B505460C46204609F0E0FC30B1044850
:10167000015D2A46153808F009F870BD0020FCE726
:101680002D29002070B505460C461646204609F067
:10169000CDFC30B10348011933462A46153808F00D
:1016A0002DF870BD2D29002030B5024613880B702F
:1016B0001C0A4C700224204695780446401C0D55A7
:1016C000D5780446401C0D5515790446401C0D552F
:1016D00055790446401C0D5595790446401C0D551E
:1016E00030BD2DE9FC4105460C46174620880930DF
:1016F000B84202D90C20BDE8FC8168466DDF064681
:1017000000BF0EB13046F6E700BF082021886854BC
:101710002088401C20801B20218868542088401C81
:10172000208020882844DDF801100160BDF80510F4
:1017300081802088801D20809DF80000400818B915
:1017400000202188685402E0012021886854208804
:10175000401C20800020CEE70A782AB1012A02D05E
:10176000022A02D102E001E000E000BF00BF7047A2
:1017700070B586B004460E46234B0FCB01AD0FC5A6
:1017800000BF14B90E2006B070BD00BF00BF0EB977
:101790000E20F8E700BF1D4804604FF6FF70A080E0
:1017A0003068206100202075A073214601A863DF06
:1017B000054600BF0DB12846E5E700BF20788DF84B
:1017C00016000120ADF81400A21C05A9A0DF0546F3
:1017D00000BF0DB12846D6E700BF3146204607F0CE
:1017E000D7FD054600BF0DB12846CCE700BF01205C
:1017F00004F0B2FA054600BF0DB12846C3E700BFAA
:1018000004F0F0FA0020BEE794B50200BC210020ED
:1018100070B505460C4600BF05B970BD00BF00BFDE
:1018200004B9FAE700BF2088102806D0112809D093
:10183000502811D0512814D109E02146284605F03E
:1018400093FA0FE02146284605F0FCFA0AE021460B
:10185000284605F0DDFB05E02146284605F014FC8E
:1018600000E000BF00BF00BFD7E700007FB504461F
:1018700000BF01208DF80E0041F60A00ADF80C0003
:1018800000BF564A03A90120A0DF054615B128462E
:1018900004B070BD208800280DDD514800902288DA
:1018A00004F13C0342F62920616800F0D3FE0546AE
:1018B0000DB12846ECE7208900280DDD494800904D
:1018C000228904F13C0342F62420E16800F0C2FEC4
:1018D00005460DB12846DBE7208A00280DDD424889
:1018E0000090228A04F13C0342F62520616900F051
:1018F000B1FE05460DB12846CAE7208B00280DDD54
:101900003A480090228B04F13C0342F62720E1691B
:1019100000F0A0FE05460DB12846B9E7208C00284E
:101920000DDD33480090228C04F13C0342F6262062
:10193000616A00F08FFE05460DB12846A8E7208DAC
:1019400000280DDD2B480090228D04F13C0342F667
:101950002820E16A00F07EFE05460DB1284697E793
:10196000206B90B101A8216B08F0B8FE224804F169
:101970003C03082201A9009042F6232000F06AFEF1
:1019800005460DB1284683E700BF606B70B11B4868
:101990000090606B027904F13C03016842F62A2052
:1019A00000F058FE05460DB1284671E7A06B90B1D6
:1019B00001A8A16B07F0DEF8114804F13C030722EF
:1019C00001A9009042F6502000F044FE05460DB1FA
:1019D00028465DE700BF00205AE700008022002073
:1019E000822200208A220020922200209A220020B7
:1019F000A2220020AA220020B2220020BA22002027
:101A0000C222002010B5044621460F4800F0A3F87A
:101A100021460E48FFF7DCFC2046FFF733FD204649
:101A2000FFF774FD204606F069FE204600F032FA0A
:101A3000204605F059F82046FFF73EFB21460448B2
:101A4000FFF7E6FE10BD0000842300206C23002079
:101A5000E0230020F8B504460E46306820604FF6BB
:101A6000FF70E082B07A207600BF01208DF802007E
:101A700041F60900ADF8000000BF221D69460120B3
:101A8000A0DF05460DB12846F8BD3146204602F0DC
:101A90006FFD05460DB12846F6E7707A38B131463C
:101AA000204602F061FE05460DB12846ECE7002015
:101AB000EAE7FEB504460D460020009001900220A2
:101AC000ADF800000020ADF8020002A80190618985
:101AD000E08A6A46A5DF06461EB902A800F068F84B
:101AE000287043F20140864202D100202870FEBDDA
:101AF0003046FCE7F0B58BB004460F46E08A4FF65F
:101B0000FF71884223D006AA3946204602F0B0FD74
:101B10000646059600200190029003900490E0880C
:101B2000ADF8040002208DF806000020ADF8080092
:101B300005A8039006A80490E08A01A9A6DF05463F
:101B400025B9BDF81400B04200D00C2500E00825EE
:101B500028460BB0F0BD70B505460C46208810280D
:101B600006D0112809D050280CD0532814D10EE0EB
:101B70002146284605F01BF90FE02146284605F0CE
:101B8000B3F90AE02146284605F0E6FA05E02146C9
:101B9000284605F0DBF900E000BF00BF70BD70B55E
:101BA00004460D462846FDF7E7FC2080656070BDC1
:101BB00070B50446204609F0A8F90546C5F3400073
:101BC00070BD70B50446204609F09FF9054605F042
:101BD000010070BD2DE9F04105460E460024327823
:101BE0002146641C6A5472782146641C6A5400BF02
:101BF000022C01D1012000E00020074637B900BFC8
:101C000004A22C210020FEF77FFC00BF00BF20466D
:101C1000BDE8F0812E2E5C2E2E5C2E2E5C2E2E5CCE
:101C20002E2E5C2E2E5C636F6D706F6E656E7473FE
:101C30005C626C655C636F6D6D6F6E5C626C655F42
:101C40007372765F636F6D6D6F6E2E6300000000C0
:101C500070B588B02F480068079000BF002350225D
:101C60002D4907A808F09EFC054600BF2E463EB150
:101C700000BF2AA24FF470713046FEF745FC00BF4A
:101C800000BF00BF6A460121002008F06BFC04463B
:101C900000BF25463DB100BF20A240F2C631284614
:101CA000FEF732FC00BF00BF1720ADF810006846F9
:101CB00008F044FC044600BF25463DB100BF17A212
:101CC0004FF474712846FEF71FFC00BF00BF174891
:101CD00008F028FC044600BF25463DB100BF0FA216
:101CE0004FF475712846FEF70FFC00BF00BF104887
:101CF00008F0ACFC044600BF25463DB100BF07A27A
:101D00004FF476712846FEF7FFFB00BF00BF08B016
:101D100070BD00006CB50200702400202E2E5C2ED9
:101D20002E5C2E2E5C6D61696E2E6300051A02001A
:101D3000CBA6020010B50146094B585C00BF4FF01E
:101D4000A044234600BFD3F81045C44004F001046A
:101D50000CB1012000E00020024682F0010010BD1D
:101D6000A8B5020010B502460949885C00BF4FF0D3
:101D7000A0442146D1F80435012484409C43C1F895
:101D80000845012484401C40C1F80C4500BF10BD2B
:101D9000A4B5020010B504460249085D012104F013
:101DA0006CFD10BDA4B5020010B504460249085DE3
:101DB000002104F062FD10BDA4B5020010B501467B
:101DC000094B585C00BF4FF0A044234600BFD3F836
:101DD0000445C44004F001040CB1012000E00020DF
:101DE000024682F0010010BDA4B502007CB50024BB
:101DF0000CE00948055D00200090034601221146D1
:101E00000190284604F0AEFC00BF641C042CF0D303
:101E100000F004F87CBD0000A4B5020010B5002459
:101E200003E02046FFF7B6FF641C042CF9D310BD75
:101E300010B5002403E02046FFF7B6FF641C042C15
:101E4000F9D310BD02464FF0FF30002106E0054BEC
:101E50005B5C934201D1084602E0491C0429F6D399
:101E600000BF7047A8B5020070B505460C460026B5
:101E70000648056014B1204608F0FBFB04480068E2
:101E800010B9FEF715FA0646304670BDE021002075
:101E9000E421002070B505462888102802D01128BA
:101EA0002CD115E01748006860B900F075FE0446B3
:101EB00000BF34B11448006818B1204612490968BF
:101EC000884700BF0F480068401C0E49086016E0B4
:101ED0000C480068401E0B4908600846006860B95D
:101EE000FEF7E6F9044600BF34B10748006818B1B0
:101EF000204605490968884700BF00E000BF00BFD1
:101F000070BD0000E4210020E02100202DE9F04117
:101F100006460F464FF0000800243046FFF792FFB8
:101F20000446042C41D227B3012F02D0022F3BD10B
:101F300033E004EB4400234911F8008004EB440033
:101F40000844407868B12048006800EB80004100F8
:101F50001E4A1F480068FEF7C9FB05460DB91B481D
:101F6000067004EB44001749084480781949085565
:101F70001AE017480068FEF7E3FB1648005D04EB23
:101F80004401104A11448978884205D104EB440089
:101F90001146084490F8028006E004EB4400094929
:101FA000084490F8018000BF00BFB8F1000F06D0D0
:101FB0000948006818B14046074909688847BDE8E4
:101FC000F0810000F8270020CC210020D82100203B
:101FD000B4B50200D9210020D421002010B5044658
:101FE0002046FFF7A7FE10BD70B50546042D09D0A9
:101FF000072D1BD00A2D02D00E2D30D12EE008F077
:1020000013F82DE013211748008876DF0446082CCA
:102010000BD000BF26463EB100BF13A240F2EF3105
:102020003046FEF771FA00BF00BF19E00D48008886
:102030004FF6FF71884210D1FFF77EF80446082C56
:102040000BD000BF26463EB100BF07A240F2F931D7
:102050003046FEF759FA00BF00BF01E000E000BFC4
:1020600000BF70BD382100202E2E5C2E2E5C2E2E3F
:102070005C6D61696E2E630030B503460020042B51
:1020800023D2012A07D1012903D103F10E04E4B2BE
:1020900000E00024224679B1012902D0022911D1A1
:1020A00004E003EB43040A4D2A550DE003EB43041F
:1020B000074D2C44627007E003EB4304044D2C44AD
:1020C000A27001E0072000BF00E0072030BD000043
:1020D000F827002070B5044600250548007800F078
:1020E000010018B1204600F05FF80546284670BD93
:1020F000D02100202DE9F04105460E4690460024EF
:102100001F4806601F4805601F48C0F8008005F0A2
:102110000200F8B1002706E0012211463846FFF719
:10212000ABFF04467F1C042F01D2002CF4D02CB945
:10213000720804211548FEF789F9044614B9FEF720
:102140006FF904462CB9124A00211248FEF76AFAC8
:10215000044600BF05F0010008B1FFF747FE2CB9A7
:102160000D4A00210D48FEF75DFA04462CB90C4AD1
:1021700001210C48FEF756FA04462046BDE8F081DE
:10218000CC210020D0210020D4210020B8B50200AD
:10219000F5240200B4B50200F54F0200ACB5020010
:1021A00013040200B0B502002DE9F04104460026F8
:1021B0000025CB48007820B10020C9490870FFF7FE
:1021C0002DFE192C70D2DFE804F00D121338639045
:1021D000BAC8F8F6F5F4F3F2F1F0EFEEEDECEBEA55
:1021E000E932E800FFF71AFEBE48047074E100BF50
:1021F0000020FFF7E3FD28B10020FFF7CBFD4FF4EF
:102200007A7503E00020FFF7CFFD6425B548047020
:102210006420B5FBF0F0B449096800FB01F7002227
:102220003946B2480068FEF761FA064654E10020DC
:10223000FFF7BAFDAB4804704EE10020FFF7BEFD8A
:1022400058B10020FFF7A6FD032C02D14FF4C8704F
:1022500001E04FF4FA60054609E00020FFF7A4FD15
:10226000032C01D1C82001E04FF4487005469D4879
:1022700004706420B5FBF0F09B49096800FB01F78E
:102280000022394699480068FEF730FA064623E1F5
:102290000020FFF793FD60B10020FFF77BFD042CC9
:1022A00003D14FF4FA6002E015E14FF4FA600546FD
:1022B0000AE00020FFF778FD042C02D14FF44870AB
:1022C00001E04FF448700546864804706420B5FB71
:1022D000F0F08549096800FB01F700223946834880
:1022E0000068FEF703FA0646F6E00020FFF766FDF9
:1022F00050B10020FFF74EFD052C01D1C82001E0B0
:102300004FF4FA60054609E00020FFF74DFD052C6B
:1023100001D1C82001E04FF44870054671480470AF
:102320006420B5FBF0F07049096800FB01F700225A
:1023300039466E480068FEF7D9F90646CCE0002021
:10234000FFF710FD6748047067480022016867487E
:102350000068FEF7CBF90646BEE00020FFF72EFD31
:1023600028B10020FFF716FD4FF4FA6504E00020C5
:10237000FFF71AFD4FF448755A4804706420B5FB06
:10238000F0F05949096800FB01F700223946574827
:102390000068FEF7ABF906469EE097E095E089E01D
:1023A00080E077E071E04DE04BE049E047E045E058
:1023B0003FE02EE01FE00EE0FFE7012048490870F3
:1023C000FFF7D0FC48480022016848480068FEF743
:1023D0008DF9064680E0012041490870FFF7C2FCF4
:1023E0004148006800EB8001002240480068FEF789
:1023F0007DF9064670E0012039490870FFF7B2FC0C
:1024000039480022016839480068FEF76FF906462E
:1024100062E0012032490870FFF7A4FC32480068EE
:1024200000EB8001002231480068FEF75FF90646A4
:1024300052E0FFF7FDFC2B4804704DE000BF00BFE9
:1024400000BF00BF2A480068FEF77AF90646C4F1CB
:102450001105B5B1AEB9012D0FD9C820684364216B
:10246000B0FBF1F02049096800FB01F70022394672
:102470001F480068FEF73AF906460220FFF794FC71
:1024800002E00220FFF786FC26E0FFF7C7FC1548B4
:10249000047021E0FFF7C2FC0020FFF785FC114823
:1024A000047019E0FFF7BAFC0120FFF77DFC0D482E
:1024B000047011E0FFF7B2FC0020FFF775FC01206B
:1024C000FFF772FC0748047006E000BFFFF7B0FC9E
:1024D0000448047000E000BF00BF3046BDE8F08152
:1024E000C9210020C8210020CC210020ACB5020069
:1024F000B0B5020010B5044620780221FFF706FDB2
:1025000010BD0000F8B50546164A40F6CD4103203F
:10251000FFF7F0FD044600BF26463EB100BF12A201
:1025200040F25F413046FDF7EFFF00BF00BF694654
:102530000020FFF799FC044600BF26463EB100BFCD
:1025400009A240F262413046FDF7DEFF00BF00BF46
:102550009DF80000022801D1012000E00020287031
:10256000F8BD0000E91F02002E2E5C2E2E5C2E2EE0
:102570005C6D61696E2E630001468879012809D17E
:102580000879012806D1488842F60212904201D10A
:10259000012070470020FCE74FF0FF31054A42F868
:1025A0002010082804DBFF23A0F108015032535407
:1025B00070470000E02D00200146024850F821003D
:1025C00070470000E02D00202DE9F04F03460C4637
:1025D0004FF0FF390AB1002000E0082084460AB11C
:1025E000082000E00C208046614624E0154850F8A1
:1025F0002100401CF0B91D460846274616464FFAF2
:1026000080FBDFF840A00AF1300A0AF805B0DFF8D5
:1026100034A04AF820704EB94FFA85FBA0F1080AA1
:10262000DFF820E00EF1500E0EF80AB000BF4FFAAE
:1026300081F902E0491C4145D8D300BF4846BDE8B6
:10264000F08F0000E02D0020014601484056704701
:10265000102E00202DE9F0438FB007460D4614469A
:102660001E46DDF8588000BF0DB1012000E00020BB
:102670008146B9F1000F06D100BF35A26C210020C0
:10268000FDF742FF00BF00BF00BF002C01DD0120AD
:1026900000E000208146B9F1000F06D100BF2CA256
:1026A0006D210020FDF730FF00BF00BF1C2107A8EF
:1026B000FDF71AF89DF81C0020F00200801C8DF830
:1026C0001C00002008900A900B900C900D9000BF09
:1026D00001208DF83A00ADF8387000BF002001905D
:1026E00030788DF8040070788DF805009DF80600AC
:1026F00020F00600801C8DF806009DF8060020F0F2
:1027000008008DF806009DF8060020F010008DF8F6
:1027100006009DF8060020F001008DF80600142147
:1027200002A8FCF7E1FF0EA8029001A80390ADF803
:1027300010400020ADF81200ADF814400695434655
:1027400002AA07A912480088A2DF0FB0BDE8F083F3
:102750002E2E5C2E2E5C2E2E5C2E2E5C2E2E5C2EB3
:102760002E5C636F6D706F6E656E74735C626C650A
:102770005C626C655F73657276696365735C626CDD
:10278000655F6469735C626C655F6469732E630086
:1027900080220020014639B10448884204D8044808
:1027A000884201D9012070470020FCE74C2300201B
:1027B0006C23002070B505460E46002407E055F84E
:1027C000340002F009FC08B9002070BD641CB4425A
:1027D000F5D30120F9E700000A49496C81B10949A4
:1027E000096C084A02EBC1010160114691F84010E2
:1027F000491C01F0070111641146496C491E5164DE
:10280000704700001C2F0020064902688A4203D04E
:10281000016808310160704702493839016000BF22
:10282000F9E70000542F00200178022902D0017836
:1028300003290BD106490A6C817D1144044A1164B5
:1028400011464A6C817D511A014A5164704700005B
:102850001C2F00202DE9F04104460D464FF6FF766F
:10286000304684420AD14FF48071284605F000FFBB
:102870000646B6F5807F0FD126460DE0FF2C0BDC17
:102880002146284605F0E4FE07460FB1204601E048
:102890004FF6FF70064600BF3046BDE8F0810000ED
:1028A00070B505460DB9094C01E0084C083409E043
:1028B000204602F099FB064606B904E028467168F6
:1028C000884700BFF4E700BF70BD0000D42D002092
:1028D0002DE9F04782461F480068002836D01D4881
:1028E0000068056806F0F8FC07461B4804682146A6
:1028F000384607F07DFFC61C1848007808B906F076
:10290000FDFCAE4201D2284600E03046044424F0EB
:102910007F44204606F0DAFC06F0DEFC80463946AD
:10292000404607F065FF00F103093946204607F0ED
:102930005FFF814509D906F0CFFC814606F0C6FC51
:102940002F2003F087F908F0CBF801E006F0F4FC43
:10295000BDE8F087E8220020EC22002000230020C0
:1029600001460888062808DB0888B0F5486F06DDB0
:1029700008884FF6FF72904201D0072070474888C0
:10298000062808DB4888B0F5486F06DD48884FF612
:10299000FF72904201D00720F0E708884FF6FF72DF
:1029A000904208D04888904205D008884A889042D2
:1029B00001DD0720E2E70020E0E72DE9F0410646CF
:1029C0000D46144698462088801D404502D90C20AB
:1029D000BDE8F0813046FFF7C3FF074600BF0FB1E7
:1029E0003846F5E700BF0520218868542088401C40
:1029F00020801220218868542088401C2080228852
:102A00005119308808F087FA2188084420802288EC
:102A10005119708808F07FFA21880844208000202E
:102A2000D6E7000010B5044600BF04A240F2D3214F
:102A30002046FDF769FD00BF10BD00002E2E5C2E64
:102A40002E5C2E2E5C6D61696E2E630030B587B0F2
:102A50001C216846FCF748FE002000904FF480409F
:102A600001904FF4C03002901E208DF80C00002021
:102A7000ADF80E008DF810000A4805900A4806903F
:102A80006846FEF7C7FC044600BF25463DB100BFBF
:102A900006A240F2EA212846FDF736FD00BF00BF3E
:102AA00007B030BD116D0200252A02002E2E5C2ECB
:102AB0002E5C2E2E5C6D61696E2E630038B51B484E
:102AC00002F06CFA20BB1A48007848B119484069F6
:102AD000E8B100200090174841696846884716E031
:102AE0001548007810B91348456801E01148856819
:102AF0000022294611480068FDF7F8FD044634B16C
:102B00000C48806918B10B4881692046884709E064
:102B10000848406930B10120009006484169684684
:102B2000884700BF00200249087038BD14220020E9
:102B30001C220020D828002010220020D8B5020036
:102B40003EB504462088FEF7C9FCD0B12088104964
:102B50000978FEF785FD28B9208800220D490978FB
:102B6000FEF790FD2088ADF8020005208DF80000EA
:102B70002088FEF7BFFC8DF80400684600F0CEFB0D
:102B800005E02088012241F2060100F0E3F93EBD94
:102B9000672200206622002010B50122002108468D
:102BA000FFF76AFA044600BF1CB1072C01D020468B
:102BB00010BD00BF072202210120FFF75DFA044685
:102BC00000BF1CB1072C01D02046F1E700BF042252
:102BD00002210020FFF750FA044600BF1CB1072C69
:102BE00001D02046E4E700BF0020E1E7F0B503464E
:102BF0000C4612B94FF0FF3001E01068C0430146A7
:102C0000002012E01D5C694008250BE001F0010680
:102C100016B14FF0FF3600E00026064F3E4086EA30
:102C200051016D1E002DF1D1401CA042EAD3C843D2
:102C3000F0BD00002083B8ED10B564244FF47A7124
:102C400014FB01F002F06EFF00BFFDF7B1FC10BDF8
:102C500070B506460D460EB1012070BD287920B131
:102C6000012809D0022813D10FE0284606F08CF97C
:102C70000446022028710DE0284600F0CFFD0446EE
:102C80000A2C01D141F61D5404E041F61D5401E027
:102C90000F2400BF00BF2046DFE700002DE9F0470A
:102CA0008146002532E01C48006800EBC50421780D
:102CB000012000FA01F619480068304020B3174897
:102CC0000068B04315490860207803F055FA0746BC
:102CD000217801208840124909680840217807FAC4
:102CE00001F188420FD16078012800D100E0002076
:102CF000784080F00108606820B108F0FF0120787A
:102D00006268904700BF00BF681CC5B205480078E4
:102D10008542C8DBBDE8F087CC220020DC22002001
:102D2000D8220020D02200207FB51B4B0FCB8DE88E
:102D30000F000023194A6946194803F041FC044674
:102D400000BF254635B100BF16A236212846FDF743
:102D5000DBFB00BF00BF124803F020FC0020164937
:102D60000860486088600320C860062008610C2065
:102D70004861192088613220C86164200862C82037
:102D80004862400088624000C8624000086340001A
:102D90004863400088637FBD78B50200F5AB020050
:102DA00070B502002E2E5C2E2E5C2E2E5C6D61788E
:102DB00033303230352E6300C0240020F0B50620B9
:102DC00001210A46002302241D4600BF4FF0A04700
:102DD0003E4641EA420747EA830747EA042747EAB3
:102DE000054C06F5E06747F820C000BF00BF00BFF4
:102DF0004FF0A0410A46012303FA00F1C2F80C1576
:102E000000BF00BFF0BD000070B500240026002503
:102E100002221149002002F019FD02220E49002071
:102E200002F014FD0C48007800020B49098800EB01
:102E3000112086B200BF0AE046FA04F000F001005B
:102E400018B1064850F824000544601CC4B20E2C8A
:102E5000F2DB284670BD000078210020C02400204D
:102E600010B5024803F02EFC10BD000070B5020042
:102E7000F0B505220320014600231C461D4600BF75
:102E800017073E4643EA440747EA800747EA052713
:102E900047EA014C06F5E06747F822C000BF00BFD3
:102EA000F0BD000070B505460C4614B90020054978
:102EB00008700548006820B121462846024A126879
:102EC000904770BDC0210020C421002070B5044689
:102ED00020793D2802D141F23D0001E04FF48850B5
:102EE000054620880022294602F0F0F970BD000056
:102EF000014614480078144A127890421DD01148B7
:102F00000078401C0F4A107010460078022801D14A
:102F1000002010700D480B4A127850F8220008600B
:102F20000B4A086812681044094A1060104600688D
:102F300020F07F401060012070470020086000BF33
:102F4000FAE70000F8220020F9220020F0220020F9
:102F5000EC220020FEB504460D461646094A07CA73
:102F60008DE80700ADF80240ADF804508DF806601A
:102F70000022054801782046FEF784FB684600F0F1
:102F8000CDF9FEBD4CB602006622002038B50446DD
:102F9000206930B1002000906946204622699047A0
:102FA00000BF012002498865024802F051FF38BD88
:102FB00000250020C539020010B50446A08928DF8D
:102FC00010BD000013480078062820D11148001DCC
:102FD000007800F00F00D0B90E480830007800F0FB
:102FE000F000302801D1012070470A4808300078ED
:102FF00000F0F000402801D10120F5E70548083035
:10300000007800F0F000502801D10120ECE700200A
:10301000EAE70000E00F00F00A48007806280ED129
:103020000848001D007800F00F0040B9054808303E
:10303000007800F0F000302801D101207047002016
:10304000FCE70000E00F00F013480078062820D1CC
:103050001148001D007800F00F00D0B90E4808306C
:10306000007800F0F000302801D1012070470A48B4
:103070000830007800F0F000402801D10120F5E789
:1030800005480830007800F0F000502801D10120F8
:10309000ECE70020EAE70000E00F00F00A480078C3
:1030A00006280ED10848001D007800F00F0040B936
:1030B00005480830007800F0F000302801D10120E8
:1030C00070470020FCE70000E00F00F01348007894
:1030D000062820D11148001D007800F00F00D0B95B
:1030E0000E480830007800F0F000302801D10120AF
:1030F00070470A480830007800F0F000402801D1FD
:103100000120F5E705480830007800F0F00050286D
:1031100001D10120ECE70020EAE70000E00F00F019
:103120000A48007806280ED10848001D007800F0F3
:103130000F0040B905480830007800F0F000302852
:1031400001D1012070470020FCE70000E00F00F0F3
:103150000A48007806280ED10848001D007800F0C3
:103160000F0040B905480830007800F0F000302822
:1031700001D1012070470020FCE70000E00F00F0C3
:103180000A48007806280ED10848001D007800F093
:103190000F0040B905480830007800F0F0005028D2
:1031A00001D1012070470020FCE70000E00F00F093
:1031B0000278072A34D2DFE802F03304071020290E
:1031C000300000220A702CE001220A7003898B81F2
:1031D0008388CB81C2688A6023E002220A70038957
:1031E0008B818388CB81C2688A60027C062A01D1E8
:1031F000012300E000230B7413E003220A70C3884C
:103200008B810389CB81C2688A600AE004220A703C
:10321000C3888B810023CB8103E005220A7000E084
:1032200000BF00BF7047000070B50546002409E0EC
:10323000064850F8240020B1044850F824102846CD
:103240008847641C082CF3D370BD0000842E002036
:103250003EB505460C46DCB1112C19D0002000907B
:1032600001900290ADF8025001940D2C03D10B2077
:103270008DF8000008E0862C03D10A208DF80000AC
:1032800002E009208DF80000684600F057F800BF02
:103290003EBD000070B50546002405E0044850F826
:1032A000241028468847641C002CF7D070BD00000D
:1032B0002022002070B50546002405E0044850F89F
:1032C000241028468847641C002CF7D070BD0000ED
:1032D0002C22002070B50546002405E0044850F873
:1032E000241028468847641C022CF7D370BD0000C8
:1032F000F4B5020070B50546002405E0054850F815
:10330000241028468847641C034800788442F5DB73
:1033100070BD0000282D00206222002070B50546F7
:10332000002405E0044850F8241028468847641C0F
:10333000022CF7D370BD000014B6020070B505462C
:10334000002405E0044850F8241028468847641CEF
:10335000002CF7D070BD000058B60200F0B503464F
:1033600000241FE0124E306806689E4203D90668AA
:10337000F61A06601AE006689B1B066834440026AD
:1033800006600B4E35680A4FC6693E60C66846B196
:103390000E1926F07F464660C66886601668C661CC
:1033A000156000BF024800680028DBD100BFF0BDF7
:1033B000E82200201FB50446606808B9012000E03B
:1033C00000200390207806287BD2DFE800F08203FB
:1033D00004304F7B00BFA08900F045FA18B9E0899E
:1033E00005F0E1FE10B3A08900F038FAADF8020054
:1033F000E08905F0D5FE8DF804002078012807D17A
:10340000606808B9002000E003208DF8000006E0A5
:10341000606808B9012000E004208DF800006068B1
:103420000390A0680290684604F084FB52E0A089F3
:1034300000F019FA18B9E08905F0B5FEA8B1A08925
:1034400000F00CFAADF80200E08905F0A9FE8DF855
:103450000400606808B9022000E005208DF8000033
:10346000A0680290684604F065FB33E0A08900F094
:10347000FAF928B3E08918BBA08900F0EFF9ADF89C
:103480000200E08905F08CFE8DF80400FF208DF825
:103490000400606838B906208DF80000BDF802000D
:1034A00004F05EFD02E007208DF8000000200E49C8
:1034B00008700E49087004F09DFC684604F03AFB61
:1034C00008E006E008208DF80000684604F032FBB2
:1034D00000E000BF00BF0448007820B1002002498E
:1034E000087004F087FC1FBD3D2200203E22002012
:1034F00010B588B00446022000F0DCF910B90220B3
:1035000008B010BD4FF6FF70844201D10420F7E7E8
:1035100005208DF8040001208DF80800ADF80A4060
:103520000022114601A803F025FE18B105F0A0FC09
:103530000020E5E70820E3E700B587B0022000F0AF
:10354000B9F910B9022007B000BD06208DF80000BF
:1035500000221146684603F00DFE48B10548007888
:1035600010B101200349087305F082FC0020EAE74E
:103570000820E8E7842F002010B58CB0142107A89C
:10358000FCF7B2F8022000F095F928B107A8FFF780
:103590004BFE00200CB010BD012000F08BF908B1EB
:1035A0000020F7E7012000F091F900F08FFA03F016
:1035B000EDFE04460CB90B20ECE7062C0AD10220E4
:1035C00000F084F9012000F05BF907A8FFF72CFE5A
:1035D0000020DFE701208DF800000C2C1AD2DFE874
:1035E00004F01906190719141915190B100C00BF4E
:1035F00000208DF804000EE000BF03208DF80400C9
:1036000009E002208DF8040005E000BF01208DF8DC
:10361000040000E000BF00BF00221146684603F02E
:10362000A9FD05F025FC0020B4E7000038B50446EC
:103630000CB9052038BD6946204605F0C9FCE0B14B
:103640000F48BDF8001000EB01108089002812DD42
:10365000A07A80B10A48BDF8001000EB0110808903
:10366000401E0749BDF8002001EB021188810020AF
:10367000A072002502E0062500E00A252846D9E7C9
:10368000642F00207FB514461D462B46224601A913
:10369000684605F035FC04B070BD37B50C461546DC
:1036A0002B4622466946002005F02AFC3EBD37B570
:1036B0000C4615462B4622460021684605F020FCA4
:1036C0003EBD024602B109B9052070471068086086
:1036D0000020FAE738B504460D4604B10DB90520BF
:1036E00038BD6946204605F073FCA8B161680B48F7
:1036F000BDF8002000EB02108089401C074ABDF88D
:10370000003002EB03129081296060680C30686021
:103710000120A0720020E3E70A20E1E7642F0020E7
:1037200070B504460D460CB9052070BD0323002278
:103730002946204607F0F0FDF7E770B504460D4630
:10374000022300222946204607F0E6FD70BD70B531
:1037500005460E4614460CB9052070BD02232246CC
:103760003146284607F0D8FDF7E700000146094A30
:103770001278082A01D10C200AE0074A054B1B7871
:1037800042F82310034A1278521C024B1A70002090
:103790007047000005230020842E0020F8B5044661
:1037A0000D46022000F086F808B90220F8BD0CB9D9
:1037B0000520FBE76946284607F09AFE06461EB933
:1037C000BDF80000208065803046EFE770B5044604
:1037D000022000F06FF808B9022070BD0CB9052076
:1037E000FBE72088022801DD0420F6E720880A494B
:1037F00001EB001671896088C01C081A08D4218862
:10380000608807F067FE002020806080002500E0CF
:1038100004252846E1E70000642F00203EB5044659
:103820000C4B6A460021A01D05F06AFB05465DB9F8
:10383000019805F03BFC0546012006498988064AA7
:1038400002EB0111887303E002480021016041602E
:1038500028463EBD14230020642F00200146A1F518
:10386000404080B270470146B1F5404F05DB4FF64E
:10387000FE70814201DC012070470020FCE700005F
:10388000024909788143014A1170704704230020DE
:1038900010B504462078182802D1FDF7C1FE20702B
:1038A00010BD10B504462078182802D1FDF7B8FEE7
:1038B000207010BD014604480078084008B101207E
:1038C00070470020FCE7000004230020024909782B
:1038D0000143014A117070470423002030B50446AB
:1038E0001088C01C984201D90C2030BD02201588D8
:1038F00048551088401C10800120158848551088B4
:10390000401C108015884C551088401C10800020E9
:10391000EBE700002DE9F04106460C46154600276E
:10392000B846862C03D0112C01D0002C35D1862C22
:1039300003D14FF00008012709E0112C03D14FF00B
:103940000108002703E014B94FF000080027C5B1B3
:103950003A46134801783046FDF794FE4246114836
:1039600001783046FDF78EFE00220F480178304680
:10397000FDF788FE00220D4801783046FDF782FEF3
:103980000BE03A46084801783046FDF77BFE424698
:10399000064801783046FDF775FEBDE8F08100006D
:1039A0007D2200207C220020792200207822002025
:1039B00008B5684600F0F4F8009808B1012008BD89
:1039C0000020FCE770B505460C4644B90449096877
:1039D0008888132176DF012001490968087570BDC8
:1039E000BC210020F8B505460C4616461F461C486B
:1039F000007800F0010008B90120F8BD2846FEF764
:103A0000C9FE08B90220F8E70CB90320F5E7C4F3B2
:103A10000B0008B10620F0E72868A04204D804EBA8
:103A200006306968884201D90520E6E70EB904200E
:103A3000E3E7684605F060F908B90720DDE700987C
:103A4000476000980560022000990872C4F30F30A7
:103A5000009988810098068205F016FA0020CCE7CC
:103A60001C23002070B505460C46204605F078F969
:103A700070BD000070B504460D460D48006820F08A
:103A800001000B4908602DB90846006820F00200CB
:103A9000086005E00648006840F00200044908603C
:103AA000606818B1294620466268904770BD0000E2
:103AB000B82100204FF010204169481C08B1084689
:103AC00070474FF0805040690003F9E72DE9F0415D
:103AD0002B482C49401A04092948401A0509FFF7C8
:103AE000E9FF06462848007800F0010010B10020E8
:103AF000BDE8F081002008E0224A02EB00110A68CC
:103B000012B14A6802B16D1E401CA042F4D30020DD
:103B10002BE01C4901EB00124FF0000CC7B2002152
:103B200017E0DFF8608008EB0113D3F80080B8F1EC
:103B3000000F05D0D3F80480B8F1000F00D007E0E3
:103B400093F80D80E04502DD93F80DC0CFB200BFC1
:103B5000491CA142E5D30B4901EB07125660117BCA
:103B6000A6EB013111601668401CA842D1D306486B
:103B7000007840F00100044908700020B8E7000018
:103B80006C2300204C2300201C2300200348406E9F
:103B9000042801D1012070470020FCE7A02F00205D
:103BA000014609B9032070470248406E08600020B2
:103BB000F9E70000A02F00202DE9F84305460C4648
:103BC00016461F46DDF820801F48007800F00100EF
:103BD00010B90120BDE8F8832846FEF7DBFD08B9DF
:103BE0000220F7E706B10CB90320F3E706F0030063
:103BF00010B904F0030008B10620EBE72868A042E2
:103C000004D804EB87016868884201D20520E1E707
:103C10000FB90420DEE7684605F06EF808B9072002
:103C2000D8E70098C0F8048000980560012000994A
:103C300008720098C660009804610098878205F0B9
:103C400023F90020C6E700001C23002070B50446BD
:103C50001748006E00EB4000154901EBC005154800
:103C6000007800F0020068B1022C02D0032C08D1C9
:103C700003E0284603F090F903E0284603F076F9C4
:103C800000BF12E00B48007800F0040068B109485A
:103C9000007820F00400074908700548406E20B104
:103CA0000846007840F00200087005F0ABF870BDDF
:103CB000A02F00201C2300203EB500BF9DF800006F
:103CC00020F00F00401C00909DF8000020F0F00054
:103CD0001030009000BF052220A168467CDF04461A
:103CE00000BF25463DB100BF1EA24FF4FB71284620
:103CF000FCF70AFC00BF00BF4FF4407078DF0446B9
:103D000000BF25463DB100BF16A240F2F91128467A
:103D1000FCF7FAFB00BF00BF0020019002904FF4B7
:103D2000C870ADF804004FF49660ADF806000020AE
:103D3000ADF808004FF4C870ADF80A0001A87ADFAA
:103D4000044600BF25463DB100BF06A240F2032154
:103D50002846FCF7D9FB00BF00BF3EBD6865616C1B
:103D6000320000002E2E5C2E2E5C2E2E5C6D6169C2
:103D70006E2E630070B505460DB1012070BD184868
:103D8000007B18B100201649087301E000F0D4F858
:103D90001348007808281DD2DFE800F01C04080C46
:103DA000101C141800F03CF8044615E000F0B2F8BE
:103DB000044611E000F08EF804460DE000F044F8EF
:103DC000044609E000F01CF9044605E000F028F97B
:103DD000044601E00F2400BF00BF2046CEE70000EC
:103DE000842F00200C480089401C0B4908810020CA
:103DF0004880087300BF0CE0084901EB0011097806
:103E000009B9012200E0002203490A310A54411C89
:103E100088B20228F0DB7047842F0020642F002036
:103E200010B5084800F032F840B900200549891E55
:103E300008704880486041F61D5010BD00F06AF8D7
:103E4000FBE70000862F002070B50D4845880D481F
:103E500000EB0510808968B90A4800EB05100023C3
:103E6000012241680848FFF7BDFD044604200449CB
:103E7000087002E000F08CF80446204670BD000097
:103E8000842F0020642F00205C23002010B5014601
:103E90000022002015E00D4B1B5C83B100240B4B6E
:103EA0001C540B4B03EB00139B8943B9084B03EBEA
:103EB00000139B7B012B02D10880012203E0431CED
:103EC00098B20228E7DB00BF104610BD8E2F0020FD
:103ED000642F0020F8B50C4844680C4800680B4972
:103EE000898800EB81056088C01C86B203200649E2
:103EF000087000200090084633462946426804486E
:103F0000FFF75AFEF8BD0000842F00200C2300208C
:103F10005C23002010B507494888091D05F096F874
:103F200018B1FFF7D7FF044602E0FFF78DFF044604
:103F3000204610BD842F002010B5144800780828B2
:103F400020D2DFE800F0041F1F0A1016171BFFF72E
:103F500049FF01200D49087015E000F06DF80220BE
:103F60000A4908700FE000F029F806200749087098
:103F700009E000BF07200549087004E0012003495B
:103F8000087000E000BF00BF10BD0000842F0020BB
:103F900010B50520064908700220064988800846A9
:103FA0000023012201680448FFF71CFD10BD00003A
:103FB000842F00200C2300205C2300200D4908687A
:103FC0000D4949880D4A02EB01114968094A1160FF
:103FD00009494988094A02EB011148600549898865
:103FE000054A5288054B03EB021211810221014A56
:103FF000918070470C230020842F0020642F002024
:1040000010B50620044908704988044A02EB0111E2
:10401000486803F099F910BD842F0020642F002018
:1040200010B50720034908700020486003F09CF990
:1040300010BD0000842F0020054A50684288D21C21
:1040400091B2044A92880A44024B9A807047000059
:10405000842F00200C2300203EB5044620885028E1
:1040600021D0522802D0542825D103E0A08801F0A5
:104070005DFA20E006208DF80000A08800F04EFDDB
:10408000ADF80200A088ADF80400BDF8020000F011
:104090004FF9A08800220C490978FDF7F3FA684629
:1040A000FFF7F8F807E0A01DFEF766FA10B1A08848
:1040B00001F08CFA00BF00BFFCF7CEFB06F038FF22
:1040C00005F0DEFC3EBD0000272200203EB5044680
:1040D0006088ADF80200207820B101280FD00228B6
:1040E0002BD116E000208DF800006846FFF7D2F8CB
:1040F000608800F03DFC054601F018FA1DE0012043
:104100008DF80000A088ADF804006846FFF7C2F8FB
:1041100013E0207980B1608800F02AFC05464FF654
:10412000FF70854207D00122054801782846FDF737
:10413000A9FA05F0A5FC00BF00BF00BF3EBD00000E
:104140002722002010B50446207801280DD1608870
:1041500001F0ECF9608800F0CFF928B16088012205
:1041600003490978FDF78EFA00E000BF00BF10BDDB
:104170002722002010B500F0F3FDFDF751FA124997
:104180000870FDF74DFA11490870FDF749FA10491A
:104190000870FDF745FA0F4908700B480078182899
:1041A0000BD00A480078182807D00948007818284A
:1041B00003D008460078182801D1032010BD012043
:1041C000054908700020F9E725220020262200205A
:1041D00027220020282200202422002010B586B0AB
:1041E00000F0BEF801A8FDF76DF9002412E002A965
:1041F00031F8140000F092FC4FF6FF71884207D1AD
:1042000002A931F81400012206490978FDF73AFAAB
:10421000601C84B20198A042E9D805F031FC06B0D8
:1042200010BD00002722002010B504462078072882
:1042300003D1608801F0CAF900E000BF00BF10BDE3
:1042400010B504460B4801782046FDF709FA70B115
:1042500000210AE001EB4100074A02EB80004088A0
:10426000A04201D1C8B210BD491C0829F2D3FF20D9
:10427000F9E70000372200204829002010B500246B
:104280000DE004EB4401084A02EB8101488807492C
:104290000978FDF7E5F908B9E0B210BD641C082CF7
:1042A000EFD3FF20F9E70000482900203722002043
:1042B0002DE9F04105460F46012000FA05F41848A3
:1042C0000068FCF73DFA06460EB1BDE8F0811548DE
:1042D00000682040E0B9284601F04EFF28B112489E
:1042E000006820431049086004E00F480068A043BC
:1042F0000D4908600B48006820430A490860002205
:104300000A48016806480068FCF7F0F9064604E030
:1043100004480068A0430349086000BFD5E70000D7
:104320009CB70200DC220020D8220020D4220020EA
:104330001CB50446044903C9CDE9000100226946C1
:10434000204603F078FA1CBDECB5020010B500F071
:104350000DFD012001490870002010BD3022002011
:1043600010B54FF6FF7003F047F90249088005F0D9
:10437000BDFB10BD322200202DE9FC478146484696
:1043800000F0CCFB0546002600274FF003084FF055
:10439000010A4FF6FF7085420CD06A460821284674
:1043A00003F012FA04462CB90198861D8788D0F8CC
:1043B000008000BF00BF43463A4631464846A9DF69
:1043C0000446042C01D1112415E0082C01D100244D
:1043D00011E00B2C0FD14FF0000A08F0020010B1D1
:1043E0004FF0010807E006B927B1002600274FF07B
:1043F000030800E003240B2CDDD0BAF1000F00D13C
:104400000B242046BDE8FC872DE9FC47804640464A
:1044100000F084FB07464FF6FF70874203D143F25A
:104420000200BDE8FC874FF001094FF0000A00BF11
:104430004FF0000A4A46511C1FFA81F96B460821C9
:10444000384603F003FA044604BB019D03202860AC
:104450002A1DA91D40462B68AADF04462CB9082155
:10446000384603F0A9FA04460FE00C2C02D14FF0B5
:10447000010A02E0052C00D100240821384603F08F
:104480007FFA064606B1032400BF02E0072C00D1E4
:104490000C24BAF1000FCBD100BF2046C1E70000C9
:1044A0007FB50446207801281BD12079012818D136
:1044B000608802AA012103F087F9054685B9022028
:1044C0008DF800006088ADF8020003A808B1012053
:1044D00000E000208DF804006846FEF7EBFE00BF08
:1044E00000BF044800884FF6FF71884201D005F0F4
:1044F000FDFA7FBD322200207CB50446204600F044
:104500000DFB06466A460121304603F05DF905467B
:104510000DB100207CBD01980078FBE770B5054621
:104520004FF6FF7600BF4FF6FF720A480188284613
:10453000A7DF044643F20300844204D10548008803
:10454000401C0449088043F203008442EBD020461B
:1045500070BD000034220020014688884FF6FF72AB
:10456000904203D0088808B1012070470020FCE782
:1045700030B59DB005460C460020159000BF9DF853
:10458000540020F00F00401C8DF854009DF854009A
:1045900020F0F00010308DF8540000BF9DF8560058
:1045A00020F00600801C8DF8560020798DF855000B
:1045B0001C2116A8FBF798F89DF8580020F0200061
:1045C00020308DF858000020179019901A9015A8E7
:1045D0001B9000201C9000BF01208DF83E0042F689
:1045E0001C20ADF83C0000BF00200E909DF83A0062
:1045F00020F00600801C8DF83A0060798DF83800B4
:10460000A0798DF839009DF83A0020F008008DF867
:104610003A009DF83A0020F010008DF83A009DF81D
:104620003A0020F00100401C8DF83A00142110A837
:10463000FBF75AF8202106A8FBF756F80FA81090B0
:104640000EA8119001AA06A9284600F011F8ADF8AD
:1046500048000020ADF84A001420ADF84C0001A835
:104660001490A888AB1D10AA16A9A2DF1DB030BDFA
:104670002DE9F04781460C46904600260127207818
:1046800008B146F00106607808B146F002062078CD
:1046900038B146F00106207B0506216961F3170554
:1046A00004E020790506A16861F3170508EB07000F
:1046B0000570290A4170290C8170290EC1700421EE
:1046C000C819C7B2607848B146F0020608EB070186
:1046D00004F11400FCF7E8FF3844C7B2A07838B101
:1046E00046F00406227F3846791CCFB208F8002035
:1046F00088F800603846BDE8F087000070B50446D1
:104700000D46002615B1FEF77FFB064600202070FF
:1047100001206070A070FE202071A66020734FF40D
:10472000486121610F48016861614068A06104200F
:1047300020770C4880791B300A49887108468079B7
:104740003B280DDD084680793C3888710846407961
:10475000401C4871084640793B2801DD0020487123
:1047600070BD00006C21002070B590B005460C466D
:104770001C2109A8FAF7B8FF9DF8240020F00200D8
:10478000801C8DF8240000200A900C900D900E9053
:104790000F9000BF01208DF80E0042F61D20ADF8ED
:1047A0000C0000BF002002909DF80A0020F00600D7
:1047B000801C8DF80A00E0798DF80800207A8DF8C9
:1047C00009009DF80A0020F008008DF80A009DF805
:1047D0000A0020F010008DF80A009DF80A0020F071
:1047E00001008DF80A00142104A8FAF77DFFA67ACB
:1047F000019603A8049002A805900120ADF81800C6
:104800000020ADF81A000120ADF81C0001A80890A6
:10481000A88805F10E0304AA09A9A2DF10B070BD93
:104820003EB504460D4620780221B1EB500F01D071
:1048300000203EBDB4F80100ADF80800E0788DF826
:104840000A00A188ADF80010A0798DF8020001AA35
:1048500069462846FBF7B2FD032201A902A8FAF730
:104860005FFE08B90120E4E70020E2E770B50646E4
:104870000C463046FFF7E4FC0546FF2D0CD005EB57
:104880004500064901EB8000416821600189A18053
:10489000807AA071002070BD0520FCE74829002027
:1048A00070B590B004462088102801D010B070BDBB
:1048B0003422211D03A8FAF7C3FE4FF6FF759DF8B9
:1048C00010000321B1EB500F35D003F099F99DF89A
:1048D0001000400820B1012803D0022828D114E09C
:1048E00000BF09E0019800F1110104A8FBF7ACFB3F
:1048F00010B1BDF8085006E06A4602A9072003F08F
:1049000051F90028EED100BF13E008E00198411CE6
:1049100004A8FFF785FF10B1BDF8085006E06A460D
:1049200002A9072003F03EF90028EFD100BF00E004
:1049300000BF00BF00BFBDF80C0004A901F024F8BF
:1049400006464FF6FF7085420FD0BDF80C00294691
:1049500000F088F8BDF80C00ADF8060001208DF8D5
:10496000040001A8FEF7B6FC00BF00BF9EE70000F0
:10497000024600210DE001EB4100084B33F8200016
:10498000904205D101EB410003EB80004088704765
:10499000491C0829EFD34FF6FF70F8E7482900209B
:1049A00010B500F0EFF9FCF73BFE06490870084629
:1049B0000078182801D1032010BD01200249087099
:1049C0000020F9E737220020362200202DE9F041AF
:1049D00004460D46601C00F0F3FA10B90020BDE853
:1049E000F0811022691C601CFAF79AFD08B90120B9
:1049F00000E00020074605F1110104F11100FBF76A
:104A000023FB064607B90EB10120E8E70020E6E7E0
:104A10000246108808B101207047002105E0901C73
:104A2000405C08B10120F7E7491C0829F7D30020B2
:104A3000F2E770B505460C462846FFF7E9FF08B9CE
:104A4000002070BD28882188884201D00020F8E726
:104A50000822A11CA81CFAF763FD08B90120F0E7A1
:104A60000020EEE770B504460D462946204603F0C7
:104A7000D9FA70BD30B587B00446207810B92079D6
:104A8000072801D007B030BD608804AA072102F0D2
:104A90009BFE054605B1F5E703F0B2F81EE060881D
:104AA000BDF81810884200D118E003990598FFF767
:104AB0008DFF90B16088FFF75BFFADF8020000202A
:104AC0008DF800006088ADF80400BDF81810ADF84E
:104AD00006106846FEF7FEFB07E000BF02AA06A923
:104AE000072003F05FF80028D9D100BF00BFC9E755
:104AF00070B506463046FFF73BFF0446304602F0ED
:104B00006EFE05464FF6FF70844204D01DB9014683
:104B1000204603F087FA284670BD000070B50546B0
:104B20002846FFF78DFB0446FF2C05D004EB44001C
:104B3000034931F8200070BD4FF6FF70FBE700001D
:104B4000482900203EB5044603F05AF810E00198C9
:104B500000F146012046FFF76CFF30B9019800F1E3
:104B60002A012046FFF765FF10B1BDF808003EBDE1
:104B70006A4602A9072003F015F80028E7D14FF68E
:104B8000FF70F4E72DE9F04106460C460F272EB1E1
:104B90000120FEF775FE0120BDE8F081207930B1DB
:104BA00001280AD0022833D0032864D13EE002F065
:104BB000DBFB0746012020715EE04FF00008002576
:104BC00016E0324800EB0510007802280ED12F497C
:104BD00001EB0511486802F0B7FB074600202B499E
:104BE00001EB051108704FF0010803E0681C85B265
:104BF000022DE6DB00BFB8F1000F08D10220FEF75E
:104C000065FE0120FEF73CFE41F61D50C4E733E08F
:104C10001F480023012201681E48FEF7E3FE0746F5
:104C200002201B4988800020207125E0184908686F
:104C300002F08AFB0746184845881548D0F80080DE
:104C4000124800EB05104068114908600F4800EB5E
:104C50000510C0F80480084680880C4901EB051156
:104C6000088102200A4988800020084901EB0511CB
:104C70000870207100E000BF00BF27B10120FEF7DF
:104C8000FFFD0E2088E7002086E70000642F00204B
:104C90000C2300205C230020842F0020F8B5294835
:104CA000007800B9F8BD00252748006808B9012040
:104CB00000E00020064600BFEDB92448007800B1AE
:104CC000F0E7684648DF0446052C01D1012511E0D4
:104CD00034B100BF1E4A89212046FBF715FC09E0CC
:104CE000009801F047F91B48006818B1194900986D
:104CF0000968884700BFEEB91448007800B1D1E7D1
:104D000015480088009069461448006861DF044631
:104D1000052C01D101260CE034B100BF0C4AAE21B4
:104D20002046FBF7F1FB04E00C48006806490968DF
:104D3000884700BF0DB106B100E0BDE700BF00BF6E
:104D4000B0E700003423002040230020352300205A
:104D500004B80200442300203C2300203823002014
:104D600000200149087070472422002000200349D8
:104D700008704FF6FF70024908807047302200200B
:104D800032220020182008490870002008E04FF661
:104D9000FF7100EB4002054B03EB82025180401C87
:104DA0000828F4D37047000037220020482900204B
